{
  "contractName": "LAVADex",
  "abi": [
    {
      "inputs": [
        {
          "internalType": "address",
          "name": "usdtAddress",
          "type": "address"
        },
        {
          "internalType": "address",
          "name": "vlcAddress",
          "type": "address"
        }
      ],
      "stateMutability": "nonpayable",
      "type": "constructor"
    },
    {
      "anonymous": false,
      "inputs": [
        {
          "indexed": false,
          "internalType": "uint256",
          "name": "amount",
          "type": "uint256"
        }
      ],
      "name": "DepositSuccess",
      "type": "event"
    },
    {
      "anonymous": false,
      "inputs": [
        {
          "indexed": false,
          "internalType": "uint256",
          "name": "amount",
          "type": "uint256"
        }
      ],
      "name": "WithdrawSuccess",
      "type": "event"
    },
    {
      "inputs": [
        {
          "internalType": "address",
          "name": "",
          "type": "address"
        }
      ],
      "name": "balances",
      "outputs": [
        {
          "internalType": "uint256",
          "name": "",
          "type": "uint256"
        }
      ],
      "stateMutability": "view",
      "type": "function"
    },
    {
      "inputs": [
        {
          "internalType": "uint256",
          "name": "amount",
          "type": "uint256"
        }
      ],
      "name": "SwapUSDTforVLC",
      "outputs": [],
      "stateMutability": "nonpayable",
      "type": "function"
    },
    {
      "inputs": [
        {
          "internalType": "uint256",
          "name": "amount",
          "type": "uint256"
        }
      ],
      "name": "SwapVLCforUSDT",
      "outputs": [],
      "stateMutability": "nonpayable",
      "type": "function"
    },
    {
      "inputs": [],
      "name": "PoolTotalUSDT",
      "outputs": [
        {
          "internalType": "uint256",
          "name": "",
          "type": "uint256"
        }
      ],
      "stateMutability": "view",
      "type": "function"
    },
    {
      "inputs": [],
      "name": "PoolTotalVLC",
      "outputs": [
        {
          "internalType": "uint256",
          "name": "",
          "type": "uint256"
        }
      ],
      "stateMutability": "view",
      "type": "function"
    },
    {
      "inputs": [],
      "name": "balanceUSDT",
      "outputs": [
        {
          "internalType": "uint256",
          "name": "",
          "type": "uint256"
        }
      ],
      "stateMutability": "view",
      "type": "function"
    },
    {
      "inputs": [],
      "name": "balanceVLC",
      "outputs": [
        {
          "internalType": "uint256",
          "name": "",
          "type": "uint256"
        }
      ],
      "stateMutability": "view",
      "type": "function"
    },
    {
      "inputs": [],
      "name": "poolTotalReward",
      "outputs": [
        {
          "internalType": "uint256",
          "name": "",
          "type": "uint256"
        }
      ],
      "stateMutability": "view",
      "type": "function"
    }
  ],
  "bytecode": "0x608060405273ab8483f64d9c6d1ecf9b849ae677dd3315835cb2600260006101000a81548173ffffffffffffffffffffffffffffffffffffffff021916908373ffffffffffffffffffffffffffffffffffffffff16021790555060056004556012600560006101000a81548160ff021916908360ff16021790555030600560016101000a81548173ffffffffffffffffffffffffffffffffffffffff021916908373ffffffffffffffffffffffffffffffffffffffff160217905550348015620000c857600080fd5b50604051620015d5380380620015d58339818101604052810190620000ee91906200018e565b816000806101000a81548173ffffffffffffffffffffffffffffffffffffffff021916908373ffffffffffffffffffffffffffffffffffffffff16021790555080600160006101000a81548173ffffffffffffffffffffffffffffffffffffffff021916908373ffffffffffffffffffffffffffffffffffffffff160217905550505062000228565b60008151905062000188816200020e565b92915050565b60008060408385031215620001a857620001a762000209565b5b6000620001b88582860162000177565b9250506020620001cb8582860162000177565b9150509250929050565b6000620001e282620001e9565b9050919050565b600073ffffffffffffffffffffffffffffffffffffffff82169050919050565b600080fd5b6200021981620001d5565b81146200022557600080fd5b50565b61139d80620002386000396000f3fe608060405234801561001057600080fd5b50600436106100885760003560e01c8063900347e81161005b578063900347e814610115578063af73021014610131578063b05cacef1461014f578063d843f3521461016d57610088565b806327e235e31461008d578063710a0026146100bd57806375bcb1b4146100db57806376984f8d146100f7575b600080fd5b6100a760048036038101906100a29190610fe0565b61018b565b6040516100b491906111dc565b60405180910390f35b6100c56101a3565b6040516100d291906111dc565b60405180910390f35b6100f560048036038101906100f0919061103a565b610255565b005b6100ff61099b565b60405161010c91906111dc565b60405180910390f35b61012f600480360381019061012a919061103a565b610a4c565b005b610139610e1f565b60405161014691906111dc565b60405180910390f35b610157610ed1565b60405161016491906111dc565b60405180910390f35b610175610f82565b60405161018291906111dc565b60405180910390f35b60066020528060005260406000206000915090505481565b6000600160009054906101000a900473ffffffffffffffffffffffffffffffffffffffff1673ffffffffffffffffffffffffffffffffffffffff166370a08231336040518263ffffffff1660e01b815260040161020091906110f8565b60206040518083038186803b15801561021857600080fd5b505afa15801561022c573d6000803e3d6000fd5b505050506040513d601f19601f820116820180604052508101906102509190611067565b905090565b60008060009054906101000a900473ffffffffffffffffffffffffffffffffffffffff1673ffffffffffffffffffffffffffffffffffffffff166370a08231336040518263ffffffff1660e01b81526004016102b191906110f8565b60206040518083038186803b1580156102c957600080fd5b505afa1580156102dd573d6000803e3d6000fd5b505050506040513d601f19601f820116820180604052508101906103019190611067565b90506000600160009054906101000a900473ffffffffffffffffffffffffffffffffffffffff1673ffffffffffffffffffffffffffffffffffffffff166370a08231336040518263ffffffff1660e01b815260040161036091906110f8565b60206040518083038186803b15801561037857600080fd5b505afa15801561038c573d6000803e3d6000fd5b505050506040513d601f19601f820116820180604052508101906103b09190611067565b905060008060009054906101000a900473ffffffffffffffffffffffffffffffffffffffff1673ffffffffffffffffffffffffffffffffffffffff166370a08231600560019054906101000a900473ffffffffffffffffffffffffffffffffffffffff166040518263ffffffff1660e01b815260040161043091906110f8565b60206040518083038186803b15801561044857600080fd5b505afa15801561045c573d6000803e3d6000fd5b505050506040513d601f19601f820116820180604052508101906104809190611067565b9050600160009054906101000a900473ffffffffffffffffffffffffffffffffffffffff1673ffffffffffffffffffffffffffffffffffffffff166370a08231600560019054906101000a900473ffffffffffffffffffffffffffffffffffffffff166040518263ffffffff1660e01b81526004016104ff91906110f8565b60206040518083038186803b15801561051757600080fd5b505afa15801561052b573d6000803e3d6000fd5b505050506040513d601f19601f8201168201806040525081019061054f9190611067565b841115610591576040517f08c379a00000000000000000000000000000000000000000000000000000000081526004016105889061119c565b60405180910390fd5b838310156105d4576040517f08c379a00000000000000000000000000000000000000000000000000000000081526004016105cb906111bc565b60405180910390fd5b8360008054906101000a900473ffffffffffffffffffffffffffffffffffffffff1673ffffffffffffffffffffffffffffffffffffffff1663dd62ed3e33306040518363ffffffff1660e01b8152600401610630929190611113565b60206040518083038186803b15801561064857600080fd5b505afa15801561065c573d6000803e3d6000fd5b505050506040513d601f19601f820116820180604052508101906106809190611067565b101561068b57600080fd5b60008054906101000a900473ffffffffffffffffffffffffffffffffffffffff1673ffffffffffffffffffffffffffffffffffffffff166323b872dd3330876040518463ffffffff1660e01b81526004016106e89392919061113c565b602060405180830381600087803b15801561070257600080fd5b505af1158015610716573d6000803e3d6000fd5b505050506040513d601f19601f8201168201806040525081019061073a919061100d565b508060008054906101000a900473ffffffffffffffffffffffffffffffffffffffff1673ffffffffffffffffffffffffffffffffffffffff166370a08231306040518263ffffffff1660e01b815260040161079591906110f8565b60206040518083038186803b1580156107ad57600080fd5b505afa1580156107c1573d6000803e3d6000fd5b505050506040513d601f19601f820116820180604052508101906107e59190611067565b116107f3576107f2611250565b5b600160009054906101000a900473ffffffffffffffffffffffffffffffffffffffff1673ffffffffffffffffffffffffffffffffffffffff1663a9059cbb33866040518363ffffffff1660e01b8152600401610850929190611173565b602060405180830381600087803b15801561086a57600080fd5b505af115801561087e573d6000803e3d6000fd5b505050506040513d601f19601f820116820180604052508101906108a2919061100d565b5081600160009054906101000a900473ffffffffffffffffffffffffffffffffffffffff1673ffffffffffffffffffffffffffffffffffffffff166370a08231336040518263ffffffff1660e01b81526004016108ff91906110f8565b60206040518083038186803b15801561091757600080fd5b505afa15801561092b573d6000803e3d6000fd5b505050506040513d601f19601f8201168201806040525081019061094f9190611067565b101561095e5761095d611250565b5b7f48608a308217c20b392d0b185cb26325f5a27402597dafebd3ab408ce640a1398460405161098d91906111dc565b60405180910390a150505050565b60008060009054906101000a900473ffffffffffffffffffffffffffffffffffffffff1673ffffffffffffffffffffffffffffffffffffffff166370a08231336040518263ffffffff1660e01b81526004016109f791906110f8565b60206040518083038186803b158015610a0f57600080fd5b505afa158015610a23573d6000803e3d6000fd5b505050506040513d601f19601f82011682018060405250810190610a479190611067565b905090565b6000600160009054906101000a900473ffffffffffffffffffffffffffffffffffffffff1673ffffffffffffffffffffffffffffffffffffffff166370a08231336040518263ffffffff1660e01b8152600401610aa991906110f8565b60206040518083038186803b158015610ac157600080fd5b505afa158015610ad5573d6000803e3d6000fd5b505050506040513d601f19601f82011682018060405250810190610af99190611067565b905060008060009054906101000a900473ffffffffffffffffffffffffffffffffffffffff1673ffffffffffffffffffffffffffffffffffffffff166370a08231306040518263ffffffff1660e01b8152600401610b5791906110f8565b60206040518083038186803b158015610b6f57600080fd5b505afa158015610b83573d6000803e3d6000fd5b505050506040513d601f19601f82011682018060405250810190610ba79190611067565b905082821015610bb657600080fd5b82811015610bc357600080fd5b600160009054906101000a900473ffffffffffffffffffffffffffffffffffffffff1673ffffffffffffffffffffffffffffffffffffffff166323b872dd3330866040518463ffffffff1660e01b8152600401610c229392919061113c565b602060405180830381600087803b158015610c3c57600080fd5b505af1158015610c50573d6000803e3d6000fd5b505050506040513d601f19601f82011682018060405250810190610c74919061100d565b506000600160009054906101000a900473ffffffffffffffffffffffffffffffffffffffff1673ffffffffffffffffffffffffffffffffffffffff166370a08231336040518263ffffffff1660e01b8152600401610cd291906110f8565b60206040518083038186803b158015610cea57600080fd5b505afa158015610cfe573d6000803e3d6000fd5b505050506040513d601f19601f82011682018060405250810190610d229190611067565b9050828110610d3457610d33611250565b5b60008054906101000a900473ffffffffffffffffffffffffffffffffffffffff1673ffffffffffffffffffffffffffffffffffffffff1663a9059cbb33866040518363ffffffff1660e01b8152600401610d8f929190611173565b602060405180830381600087803b158015610da957600080fd5b505af1158015610dbd573d6000803e3d6000fd5b505050506040513d601f19601f82011682018060405250810190610de1919061100d565b507f1ff346d95046c2f87c98568b93e027190da3259750299eebcf444a0fa420a28484604051610e1191906111dc565b60405180910390a150505050565b6000600160009054906101000a900473ffffffffffffffffffffffffffffffffffffffff1673ffffffffffffffffffffffffffffffffffffffff166370a08231306040518263ffffffff1660e01b8152600401610e7c91906110f8565b60206040518083038186803b158015610e9457600080fd5b505afa158015610ea8573d6000803e3d6000fd5b505050506040513d601f19601f82011682018060405250810190610ecc9190611067565b905090565b60008060009054906101000a900473ffffffffffffffffffffffffffffffffffffffff1673ffffffffffffffffffffffffffffffffffffffff166370a08231306040518263ffffffff1660e01b8152600401610f2d91906110f8565b60206040518083038186803b158015610f4557600080fd5b505afa158015610f59573d6000803e3d6000fd5b505050506040513d601f19601f82011682018060405250810190610f7d9190611067565b905090565b6000600354905090565b600081359050610f9b81611322565b92915050565b600081519050610fb081611339565b92915050565b600081359050610fc581611350565b92915050565b600081519050610fda81611350565b92915050565b600060208284031215610ff657610ff561127f565b5b600061100484828501610f8c565b91505092915050565b6000602082840312156110235761102261127f565b5b600061103184828501610fa1565b91505092915050565b6000602082840312156110505761104f61127f565b5b600061105e84828501610fb6565b91505092915050565b60006020828403121561107d5761107c61127f565b5b600061108b84828501610fcb565b91505092915050565b61109d81611208565b82525050565b60006110b06024836111f7565b91506110bb82611284565b604082019050919050565b60006110d36030836111f7565b91506110de826112d3565b604082019050919050565b6110f281611246565b82525050565b600060208201905061110d6000830184611094565b92915050565b60006040820190506111286000830185611094565b6111356020830184611094565b9392505050565b60006060820190506111516000830186611094565b61115e6020830185611094565b61116b60408301846110e9565b949350505050565b60006040820190506111886000830185611094565b61119560208301846110e9565b9392505050565b600060208201905081810360008301526111b5816110a3565b9050919050565b600060208201905081810360008301526111d5816110c6565b9050919050565b60006020820190506111f160008301846110e9565b92915050565b600082825260208201905092915050565b600061121382611226565b9050919050565b60008115159050919050565b600073ffffffffffffffffffffffffffffffffffffffff82169050919050565b6000819050919050565b7f4e487b7100000000000000000000000000000000000000000000000000000000600052600160045260246000fd5b600080fd5b7f4e6f7420656e6f75676820546f6b656e20696e2074686520506f6f6c2042616c60008201527f616e636500000000000000000000000000000000000000000000000000000000602082015250565b7f4465706f736974656420416d6f756e74206d757374206265206c65737320746860008201527f616e20746f74616c2062616c616e636500000000000000000000000000000000602082015250565b61132b81611208565b811461133657600080fd5b50565b6113428161121a565b811461134d57600080fd5b50565b61135981611246565b811461136457600080fd5b5056fea26469706673582212208f3b543f85f2973766998db2a87316796bbcbee226fe93ab1c9404d7f9de252c64736f6c63430008060033",
  "immutableReferences": {},
  "source": "pragma solidity ^0.8.0;\n\nimport \"@openzeppelin/contracts/token/ERC20/IERC20.sol\";\nimport \"@openzeppelin/contracts/token/ERC20/extensions/ERC20Snapshot.sol\";\nimport \"@openzeppelin/contracts/access/Ownable.sol\";\n\ncontract LAVADex {\n    event DepositSuccess(uint256 amount);\n    event WithdrawSuccess(uint256 amount);\n\n    ERC20 USDT;\n\n    // Token to send for USDT\n    ERC20 VLC;\n    \n    address USDTRewardAddr = 0xAb8483F64d9C6d1EcF9b849Ae677dD3315835cb2; //pass in constructor\n    uint256 totalReward; //total reward balance in USDT\n    uint256 poolFee = 5; //pool tx fee in %\n    uint8 decimals = 18; //usdt decimals\n    address thisAddress = address(this);\n    \n    mapping (address => uint256) public balances;\n\n    //usdtAddress - USDT Contract Token Address\n    constructor(address usdtAddress, address vlcAddress) {\n        USDT = ERC20(usdtAddress);\n        VLC = ERC20(vlcAddress);\n    }\n\n    //swap vUSDT and recieve VLC in ratio 1:1 + FEES\n    function SwapUSDTforVLC(uint256 amount) public {\n        uint256 userUSDTbalance = USDT.balanceOf(msg.sender);\n        uint256 userVLCbalance = VLC.balanceOf(msg.sender);\n        uint256 poolUSDTbalance = USDT.balanceOf(thisAddress);\n        \n        require( amount <= VLC.balanceOf(thisAddress), \"Not enough Token in the Pool Balance\");\n        require( userUSDTbalance >= amount, \"Deposited Amount must be less than total balance\" );\n        require( USDT.allowance(msg.sender, address(this) ) >= amount );\n        \n        USDT.transferFrom(msg.sender, address(this), amount);\n        \n        assert( USDT.balanceOf( address(this) ) > poolUSDTbalance );\n        // Send amount tokens to msg.sender\n        VLC.transfer(msg.sender, amount);\n        \n        assert( VLC.balanceOf(msg.sender) >= userVLCbalance );\n\n        emit DepositSuccess(amount);\n    }\n\n    function SwapVLCforUSDT(uint256 amount) public {\n        uint256 userVLCbalance = VLC.balanceOf(msg.sender);\n        uint256 poolUSDTbalance = USDT.balanceOf(address(this));\n        \n        // Recieve VLC amount from msg.sender\n        require(userVLCbalance >= amount);\n        require(poolUSDTbalance >= amount);\n        \n        VLC.transferFrom(msg.sender, address(this), amount);\n        uint256 newUserVLCbalance = VLC.balanceOf(msg.sender);\n        assert( newUserVLCbalance < userVLCbalance );\n        \n        //send USDT amount to msg.sender\n        USDT.transfer(msg.sender, amount);\n\n\n        emit WithdrawSuccess(amount);\n    }\n    \n    function PoolTotalUSDT() public view returns (uint256){\n        return USDT.balanceOf(address(this));\n    }\n    \n    function PoolTotalVLC() public view returns (uint256){\n        return VLC.balanceOf(address(this));\n    }\n\n    \n    function balanceUSDT() public view returns (uint256){\n        return USDT.balanceOf(msg.sender);\n    }\n    \n    function balanceVLC() public view returns (uint256){\n        return VLC.balanceOf(msg.sender);\n    }\n    \n    function poolTotalReward() public view returns (uint256) {\n        return totalReward;\n    }\n}\n",
  "sourcePath": "/Users/alessandrodecristofaro/Documents/Volkano/contracts/LAVAdex.sol",
  "compiler": {
    "name": "solc",
    "version": "0.8.6+commit.11564f7e.Emscripten.clang"
  },
  "schemaVersion": "3.4.1",
  "updatedAt": "2021-06-30T22:54:24.432Z",
  "devdoc": {
    "kind": "dev",
    "methods": {},
    "version": 1
  },
  "userdoc": {
    "kind": "user",
    "methods": {},
    "version": 1
  }
}