{
  "contractName": "Volcano",
  "abi": [
    {
      "inputs": [],
      "stateMutability": "nonpayable",
      "type": "constructor"
    },
    {
      "anonymous": false,
      "inputs": [
        {
          "indexed": true,
          "internalType": "address",
          "name": "owner",
          "type": "address"
        },
        {
          "indexed": true,
          "internalType": "address",
          "name": "spender",
          "type": "address"
        },
        {
          "indexed": false,
          "internalType": "uint256",
          "name": "value",
          "type": "uint256"
        }
      ],
      "name": "Approval",
      "type": "event"
    },
    {
      "anonymous": false,
      "inputs": [
        {
          "indexed": false,
          "internalType": "uint256",
          "name": "minTokensBeforeSwap",
          "type": "uint256"
        }
      ],
      "name": "MinTokensBeforeSwapUpdated",
      "type": "event"
    },
    {
      "anonymous": false,
      "inputs": [
        {
          "indexed": true,
          "internalType": "address",
          "name": "previousOwner",
          "type": "address"
        },
        {
          "indexed": true,
          "internalType": "address",
          "name": "newOwner",
          "type": "address"
        }
      ],
      "name": "OwnershipTransferred",
      "type": "event"
    },
    {
      "anonymous": false,
      "inputs": [
        {
          "indexed": false,
          "internalType": "uint256",
          "name": "tokensSwapped",
          "type": "uint256"
        },
        {
          "indexed": false,
          "internalType": "uint256",
          "name": "ethReceived",
          "type": "uint256"
        },
        {
          "indexed": false,
          "internalType": "uint256",
          "name": "tokensIntoLiqudity",
          "type": "uint256"
        }
      ],
      "name": "SwapAndLiquify",
      "type": "event"
    },
    {
      "anonymous": false,
      "inputs": [
        {
          "indexed": false,
          "internalType": "bool",
          "name": "enabled",
          "type": "bool"
        }
      ],
      "name": "SwapAndLiquifyEnabledUpdated",
      "type": "event"
    },
    {
      "anonymous": false,
      "inputs": [
        {
          "indexed": true,
          "internalType": "address",
          "name": "from",
          "type": "address"
        },
        {
          "indexed": true,
          "internalType": "address",
          "name": "to",
          "type": "address"
        },
        {
          "indexed": false,
          "internalType": "uint256",
          "name": "value",
          "type": "uint256"
        }
      ],
      "name": "Transfer",
      "type": "event"
    },
    {
      "inputs": [],
      "name": "_liquidityFee",
      "outputs": [
        {
          "internalType": "uint256",
          "name": "",
          "type": "uint256"
        }
      ],
      "stateMutability": "view",
      "type": "function"
    },
    {
      "inputs": [],
      "name": "_maxTxAmount",
      "outputs": [
        {
          "internalType": "uint256",
          "name": "",
          "type": "uint256"
        }
      ],
      "stateMutability": "view",
      "type": "function"
    },
    {
      "inputs": [],
      "name": "_taxFee",
      "outputs": [
        {
          "internalType": "uint256",
          "name": "",
          "type": "uint256"
        }
      ],
      "stateMutability": "view",
      "type": "function"
    },
    {
      "inputs": [],
      "name": "geUnlockTime",
      "outputs": [
        {
          "internalType": "uint256",
          "name": "",
          "type": "uint256"
        }
      ],
      "stateMutability": "view",
      "type": "function"
    },
    {
      "inputs": [
        {
          "internalType": "uint256",
          "name": "time",
          "type": "uint256"
        }
      ],
      "name": "lock",
      "outputs": [],
      "stateMutability": "nonpayable",
      "type": "function"
    },
    {
      "inputs": [],
      "name": "owner",
      "outputs": [
        {
          "internalType": "address",
          "name": "",
          "type": "address"
        }
      ],
      "stateMutability": "view",
      "type": "function"
    },
    {
      "inputs": [],
      "name": "renounceOwnership",
      "outputs": [],
      "stateMutability": "nonpayable",
      "type": "function"
    },
    {
      "inputs": [],
      "name": "swapAndLiquifyEnabled",
      "outputs": [
        {
          "internalType": "bool",
          "name": "",
          "type": "bool"
        }
      ],
      "stateMutability": "view",
      "type": "function"
    },
    {
      "inputs": [
        {
          "internalType": "address",
          "name": "newOwner",
          "type": "address"
        }
      ],
      "name": "transferOwnership",
      "outputs": [],
      "stateMutability": "nonpayable",
      "type": "function"
    },
    {
      "inputs": [],
      "name": "unlock",
      "outputs": [],
      "stateMutability": "nonpayable",
      "type": "function"
    },
    {
      "stateMutability": "payable",
      "type": "receive"
    },
    {
      "inputs": [],
      "name": "name",
      "outputs": [
        {
          "internalType": "string",
          "name": "",
          "type": "string"
        }
      ],
      "stateMutability": "view",
      "type": "function"
    },
    {
      "inputs": [],
      "name": "symbol",
      "outputs": [
        {
          "internalType": "string",
          "name": "",
          "type": "string"
        }
      ],
      "stateMutability": "view",
      "type": "function"
    },
    {
      "inputs": [],
      "name": "decimals",
      "outputs": [
        {
          "internalType": "uint8",
          "name": "",
          "type": "uint8"
        }
      ],
      "stateMutability": "view",
      "type": "function"
    },
    {
      "inputs": [],
      "name": "totalSupply",
      "outputs": [
        {
          "internalType": "uint256",
          "name": "",
          "type": "uint256"
        }
      ],
      "stateMutability": "view",
      "type": "function"
    },
    {
      "inputs": [
        {
          "internalType": "address",
          "name": "account",
          "type": "address"
        }
      ],
      "name": "balanceOf",
      "outputs": [
        {
          "internalType": "uint256",
          "name": "",
          "type": "uint256"
        }
      ],
      "stateMutability": "view",
      "type": "function"
    },
    {
      "inputs": [
        {
          "internalType": "address",
          "name": "recipient",
          "type": "address"
        },
        {
          "internalType": "uint256",
          "name": "amount",
          "type": "uint256"
        }
      ],
      "name": "transfer",
      "outputs": [
        {
          "internalType": "bool",
          "name": "",
          "type": "bool"
        }
      ],
      "stateMutability": "nonpayable",
      "type": "function"
    },
    {
      "inputs": [
        {
          "internalType": "address",
          "name": "owner",
          "type": "address"
        },
        {
          "internalType": "address",
          "name": "spender",
          "type": "address"
        }
      ],
      "name": "allowance",
      "outputs": [
        {
          "internalType": "uint256",
          "name": "",
          "type": "uint256"
        }
      ],
      "stateMutability": "view",
      "type": "function"
    },
    {
      "inputs": [
        {
          "internalType": "address",
          "name": "spender",
          "type": "address"
        },
        {
          "internalType": "uint256",
          "name": "amount",
          "type": "uint256"
        }
      ],
      "name": "approve",
      "outputs": [
        {
          "internalType": "bool",
          "name": "",
          "type": "bool"
        }
      ],
      "stateMutability": "nonpayable",
      "type": "function"
    },
    {
      "inputs": [
        {
          "internalType": "address",
          "name": "sender",
          "type": "address"
        },
        {
          "internalType": "address",
          "name": "recipient",
          "type": "address"
        },
        {
          "internalType": "uint256",
          "name": "amount",
          "type": "uint256"
        }
      ],
      "name": "transferFrom",
      "outputs": [
        {
          "internalType": "bool",
          "name": "",
          "type": "bool"
        }
      ],
      "stateMutability": "nonpayable",
      "type": "function"
    },
    {
      "inputs": [
        {
          "internalType": "address",
          "name": "spender",
          "type": "address"
        },
        {
          "internalType": "uint256",
          "name": "addedValue",
          "type": "uint256"
        }
      ],
      "name": "increaseAllowance",
      "outputs": [
        {
          "internalType": "bool",
          "name": "",
          "type": "bool"
        }
      ],
      "stateMutability": "nonpayable",
      "type": "function"
    },
    {
      "inputs": [
        {
          "internalType": "address",
          "name": "spender",
          "type": "address"
        },
        {
          "internalType": "uint256",
          "name": "subtractedValue",
          "type": "uint256"
        }
      ],
      "name": "decreaseAllowance",
      "outputs": [
        {
          "internalType": "bool",
          "name": "",
          "type": "bool"
        }
      ],
      "stateMutability": "nonpayable",
      "type": "function"
    },
    {
      "inputs": [
        {
          "internalType": "address",
          "name": "account",
          "type": "address"
        }
      ],
      "name": "isExcludedFromReward",
      "outputs": [
        {
          "internalType": "bool",
          "name": "",
          "type": "bool"
        }
      ],
      "stateMutability": "view",
      "type": "function"
    },
    {
      "inputs": [],
      "name": "totalFees",
      "outputs": [
        {
          "internalType": "uint256",
          "name": "",
          "type": "uint256"
        }
      ],
      "stateMutability": "view",
      "type": "function"
    },
    {
      "inputs": [
        {
          "internalType": "uint256",
          "name": "tAmount",
          "type": "uint256"
        }
      ],
      "name": "deliver",
      "outputs": [],
      "stateMutability": "nonpayable",
      "type": "function"
    },
    {
      "inputs": [
        {
          "internalType": "uint256",
          "name": "tAmount",
          "type": "uint256"
        },
        {
          "internalType": "bool",
          "name": "deductTransferFee",
          "type": "bool"
        }
      ],
      "name": "reflectionFromToken",
      "outputs": [
        {
          "internalType": "uint256",
          "name": "",
          "type": "uint256"
        }
      ],
      "stateMutability": "view",
      "type": "function"
    },
    {
      "inputs": [
        {
          "internalType": "uint256",
          "name": "rAmount",
          "type": "uint256"
        }
      ],
      "name": "tokenFromReflection",
      "outputs": [
        {
          "internalType": "uint256",
          "name": "",
          "type": "uint256"
        }
      ],
      "stateMutability": "view",
      "type": "function"
    },
    {
      "inputs": [
        {
          "internalType": "address",
          "name": "account",
          "type": "address"
        }
      ],
      "name": "excludeFromReward",
      "outputs": [],
      "stateMutability": "nonpayable",
      "type": "function"
    },
    {
      "inputs": [
        {
          "internalType": "address",
          "name": "account",
          "type": "address"
        }
      ],
      "name": "includeInReward",
      "outputs": [],
      "stateMutability": "nonpayable",
      "type": "function"
    },
    {
      "inputs": [
        {
          "internalType": "address",
          "name": "account",
          "type": "address"
        }
      ],
      "name": "excludeFromFee",
      "outputs": [],
      "stateMutability": "nonpayable",
      "type": "function"
    },
    {
      "inputs": [
        {
          "internalType": "address",
          "name": "account",
          "type": "address"
        }
      ],
      "name": "includeInFee",
      "outputs": [],
      "stateMutability": "nonpayable",
      "type": "function"
    },
    {
      "inputs": [
        {
          "internalType": "uint256",
          "name": "taxFee",
          "type": "uint256"
        }
      ],
      "name": "setTaxFeePercent",
      "outputs": [],
      "stateMutability": "nonpayable",
      "type": "function"
    },
    {
      "inputs": [
        {
          "internalType": "uint256",
          "name": "liquidityFee",
          "type": "uint256"
        }
      ],
      "name": "setLiquidityFeePercent",
      "outputs": [],
      "stateMutability": "nonpayable",
      "type": "function"
    },
    {
      "inputs": [
        {
          "internalType": "uint256",
          "name": "maxTxPercent",
          "type": "uint256"
        }
      ],
      "name": "setMaxTxPercent",
      "outputs": [],
      "stateMutability": "nonpayable",
      "type": "function"
    },
    {
      "inputs": [
        {
          "internalType": "bool",
          "name": "_enabled",
          "type": "bool"
        }
      ],
      "name": "setSwapAndLiquifyEnabled",
      "outputs": [],
      "stateMutability": "nonpayable",
      "type": "function"
    },
    {
      "inputs": [],
      "name": "getCurrentRate",
      "outputs": [
        {
          "internalType": "uint256",
          "name": "",
          "type": "uint256"
        }
      ],
      "stateMutability": "view",
      "type": "function"
    },
    {
      "inputs": [],
      "name": "getSupply",
      "outputs": [
        {
          "internalType": "uint256",
          "name": "",
          "type": "uint256"
        },
        {
          "internalType": "uint256",
          "name": "",
          "type": "uint256"
        }
      ],
      "stateMutability": "view",
      "type": "function"
    },
    {
      "inputs": [
        {
          "internalType": "address",
          "name": "account",
          "type": "address"
        }
      ],
      "name": "isExcludedFromFee",
      "outputs": [
        {
          "internalType": "bool",
          "name": "",
          "type": "bool"
        }
      ],
      "stateMutability": "view",
      "type": "function"
    }
  ],
  "bytecode": "0x60806040526012600960006101000a81548160ff021916908360ff160217905550600960009054906101000a900460ff16600a6200003e919062000544565b633b9aca006200004f919062000681565b600a55600a546000196200006491906200076a565b600019620000739190620006e2565b600b556040518060400160405280600781526020017f566f6c63616e6f00000000000000000000000000000000000000000000000000815250600d9080519060200190620000c39291906200040b565b506040518060400160405280600381526020017f564c430000000000000000000000000000000000000000000000000000000000815250600e9080519060200190620001119291906200040b565b506005600f55600f5460105560056011556011546012556001601360016101000a81548160ff021916908315150217905550600960009054906101000a900460ff16600a62000161919062000544565b631dcd650062000172919062000681565b601455600960009054906101000a900460ff16600a62000193919062000544565b631dcd6500620001a4919062000681565b601555348015620001b457600080fd5b506000620001c7620003da60201b60201c565b9050806000806101000a81548173ffffffffffffffffffffffffffffffffffffffff021916908373ffffffffffffffffffffffffffffffffffffffff1602179055508073ffffffffffffffffffffffffffffffffffffffff16600073ffffffffffffffffffffffffffffffffffffffff167f8be0079c531659141344cd1fd0a4f28419497f9722a3daafe3b4186f6b6457e060405160405180910390a350600b54600360003373ffffffffffffffffffffffffffffffffffffffff1673ffffffffffffffffffffffffffffffffffffffff16815260200190815260200160002081905550600160066000620002c1620003e260201b60201c565b73ffffffffffffffffffffffffffffffffffffffff1673ffffffffffffffffffffffffffffffffffffffff16815260200190815260200160002060006101000a81548160ff0219169083151502179055506001600660003073ffffffffffffffffffffffffffffffffffffffff1673ffffffffffffffffffffffffffffffffffffffff16815260200190815260200160002060006101000a81548160ff0219169083151502179055503373ffffffffffffffffffffffffffffffffffffffff16600073ffffffffffffffffffffffffffffffffffffffff167fddf252ad1be2c89b69c2b068fc378daa952ba7f163c4a11628f55a4df523b3ef600a54604051620003cc9190620004cc565b60405180910390a36200083c565b600033905090565b60008060009054906101000a900473ffffffffffffffffffffffffffffffffffffffff16905090565b828054620004199062000734565b90600052602060002090601f0160209004810192826200043d576000855562000489565b82601f106200045857805160ff191683800117855562000489565b8280016001018555821562000489579182015b82811115620004885782518255916020019190600101906200046b565b5b5090506200049891906200049c565b5090565b5b80821115620004b75760008160009055506001016200049d565b5090565b620004c6816200071d565b82525050565b6000602082019050620004e36000830184620004bb565b92915050565b6000808291508390505b60018511156200053b57808604811115620005135762000512620007a2565b5b6001851615620005235780820291505b808102905062000533856200082f565b9450620004f3565b94509492505050565b600062000551826200071d565b91506200055e8362000727565b92506200058d7fffffffffffffffffffffffffffffffffffffffffffffffffffffffffffffffff848462000595565b905092915050565b600082620005a757600190506200067a565b81620005b757600090506200067a565b8160018114620005d05760028114620005db5762000611565b60019150506200067a565b60ff841115620005f057620005ef620007a2565b5b8360020a9150848211156200060a5762000609620007a2565b5b506200067a565b5060208310610133831016604e8410600b84101617156200064b5782820a905083811115620006455762000644620007a2565b5b6200067a565b6200065a8484846001620004e9565b92509050818404811115620006745762000673620007a2565b5b81810290505b9392505050565b60006200068e826200071d565b91506200069b836200071d565b9250817fffffffffffffffffffffffffffffffffffffffffffffffffffffffffffffffff0483118215151615620006d757620006d6620007a2565b5b828202905092915050565b6000620006ef826200071d565b9150620006fc836200071d565b925082821015620007125762000711620007a2565b5b828203905092915050565b6000819050919050565b600060ff82169050919050565b600060028204905060018216806200074d57607f821691505b6020821081141562000764576200076362000800565b5b50919050565b600062000777826200071d565b915062000784836200071d565b925082620007975762000796620007d1565b5b828206905092915050565b7f4e487b7100000000000000000000000000000000000000000000000000000000600052601160045260246000fd5b7f4e487b7100000000000000000000000000000000000000000000000000000000600052601260045260246000fd5b7f4e487b7100000000000000000000000000000000000000000000000000000000600052602260045260246000fd5b60008160011c9050919050565b614d1b806200084c6000396000f3fe60806040526004361061021e5760003560e01c80636c9c2faf11610123578063a69df4b5116100ab578063dd4670641161006f578063dd46706414610807578063dd62ed3e14610830578063ea2f0b371461086d578063f2fde38b14610896578063f7fb07b0146108bf57610225565b8063a69df4b514610736578063a9059cbb1461074d578063b6c523241461078a578063c49b9a80146107b5578063d543dbeb146107de57610225565b806388f82020116100f257806388f820201461063d5780638da5cb5b1461067a5780638ee88c53146106a557806395d89b41146106ce578063a457c2d7146106f957610225565b80636c9c2faf1461059257806370a08231146105be578063715018a6146105fb5780637d1db4a51461061257610225565b806339509351116101a65780634549b039116101755780634549b039146104995780634a74bb02146104d657806352390c02146105015780635342acb41461052a5780636bc87c3a1461056757610225565b806339509351146103df5780633b124fe71461041c5780633bd5d17314610447578063437823ec1461047057610225565b806318160ddd116101ed57806318160ddd146102e657806323b872dd146103115780632d8381191461034e578063313ce5671461038b5780633685d419146103b657610225565b8063061c82d01461022a57806306fdde0314610253578063095ea7b31461027e57806313114a9d146102bb57610225565b3661022557005b600080fd5b34801561023657600080fd5b50610251600480360381019061024c9190613f23565b6108ea565b005b34801561025f57600080fd5b50610268610989565b604051610275919061426b565b60405180910390f35b34801561028a57600080fd5b506102a560048036038101906102a09190613eb6565b610a1b565b6040516102b29190614250565b60405180910390f35b3480156102c757600080fd5b506102d0610a39565b6040516102dd919061448d565b60405180910390f35b3480156102f257600080fd5b506102fb610a43565b604051610308919061448d565b60405180910390f35b34801561031d57600080fd5b5061033860048036038101906103339190613e63565b610a4d565b6040516103459190614250565b60405180910390f35b34801561035a57600080fd5b5061037560048036038101906103709190613f23565b610b26565b604051610382919061448d565b60405180910390f35b34801561039757600080fd5b506103a0610b94565b6040516103ad91906144d1565b60405180910390f35b3480156103c257600080fd5b506103dd60048036038101906103d89190613df6565b610bab565b005b3480156103eb57600080fd5b5061040660048036038101906104019190613eb6565b610efa565b6040516104139190614250565b60405180910390f35b34801561042857600080fd5b50610431610fad565b60405161043e919061448d565b60405180910390f35b34801561045357600080fd5b5061046e60048036038101906104699190613f23565b610fb3565b005b34801561047c57600080fd5b5061049760048036038101906104929190613df6565b61112e565b005b3480156104a557600080fd5b506104c060048036038101906104bb9190613f50565b61121e565b6040516104cd919061448d565b60405180910390f35b3480156104e257600080fd5b506104eb6112a2565b6040516104f89190614250565b60405180910390f35b34801561050d57600080fd5b5061052860048036038101906105239190613df6565b6112b5565b005b34801561053657600080fd5b50610551600480360381019061054c9190613df6565b611569565b60405161055e9190614250565b60405180910390f35b34801561057357600080fd5b5061057c6115bf565b604051610589919061448d565b60405180910390f35b34801561059e57600080fd5b506105a76115c5565b6040516105b59291906144a8565b60405180910390f35b3480156105ca57600080fd5b506105e560048036038101906105e09190613df6565b6115e3565b6040516105f2919061448d565b60405180910390f35b34801561060757600080fd5b506106106116ce565b005b34801561061e57600080fd5b50610627611821565b604051610634919061448d565b60405180910390f35b34801561064957600080fd5b50610664600480360381019061065f9190613df6565b611827565b6040516106719190614250565b60405180910390f35b34801561068657600080fd5b5061068f61187d565b60405161069c9190614235565b60405180910390f35b3480156106b157600080fd5b506106cc60048036038101906106c79190613f23565b6118a6565b005b3480156106da57600080fd5b506106e3611945565b6040516106f0919061426b565b60405180910390f35b34801561070557600080fd5b50610720600480360381019061071b9190613eb6565b6119d7565b60405161072d9190614250565b60405180910390f35b34801561074257600080fd5b5061074b611aa4565b005b34801561075957600080fd5b50610774600480360381019061076f9190613eb6565b611c78565b6040516107819190614250565b60405180910390f35b34801561079657600080fd5b5061079f611c96565b6040516107ac919061448d565b60405180910390f35b3480156107c157600080fd5b506107dc60048036038101906107d79190613ef6565b611ca0565b005b3480156107ea57600080fd5b5061080560048036038101906108009190613f23565b611d89565b005b34801561081357600080fd5b5061082e60048036038101906108299190613f23565b611e4f565b005b34801561083c57600080fd5b5061085760048036038101906108529190613e23565b612016565b604051610864919061448d565b60405180910390f35b34801561087957600080fd5b50610894600480360381019061088f9190613df6565b61209d565b005b3480156108a257600080fd5b506108bd60048036038101906108b89190613df6565b61218d565b005b3480156108cb57600080fd5b506108d461234f565b6040516108e1919061448d565b60405180910390f35b6108f261235e565b73ffffffffffffffffffffffffffffffffffffffff1660008054906101000a900473ffffffffffffffffffffffffffffffffffffffff1673ffffffffffffffffffffffffffffffffffffffff161461097f576040517f08c379a0000000000000000000000000000000000000000000000000000000008152600401610976906143ad565b60405180910390fd5b80600f8190555050565b6060600d8054610998906146a5565b80601f01602080910402602001604051908101604052809291908181526020018280546109c4906146a5565b8015610a115780601f106109e657610100808354040283529160200191610a11565b820191906000526020600020905b8154815290600101906020018083116109f457829003601f168201915b5050505050905090565b6000610a2f610a2861235e565b8484612366565b6001905092915050565b6000600c54905090565b6000600a54905090565b6000610a5a848484612531565b610b1b84610a6661235e565b610b1685604051806060016040528060288152602001614c9960289139600560008b73ffffffffffffffffffffffffffffffffffffffff1673ffffffffffffffffffffffffffffffffffffffff1681526020019081526020016000206000610acc61235e565b73ffffffffffffffffffffffffffffffffffffffff1673ffffffffffffffffffffffffffffffffffffffff1681526020019081526020016000205461283d9092919063ffffffff16565b612366565b600190509392505050565b6000600b54821115610b6d576040517f08c379a0000000000000000000000000000000000000000000000000000000008152600401610b64906142ad565b60405180910390fd5b6000610b776128a1565b9050610b8c81846128cc90919063ffffffff16565b915050919050565b6000600960009054906101000a900460ff16905090565b610bb361235e565b73ffffffffffffffffffffffffffffffffffffffff1660008054906101000a900473ffffffffffffffffffffffffffffffffffffffff1673ffffffffffffffffffffffffffffffffffffffff1614610c40576040517f08c379a0000000000000000000000000000000000000000000000000000000008152600401610c37906143ad565b60405180910390fd5b600760008273ffffffffffffffffffffffffffffffffffffffff1673ffffffffffffffffffffffffffffffffffffffff16815260200190815260200160002060009054906101000a900460ff16610ccc576040517f08c379a0000000000000000000000000000000000000000000000000000000008152600401610cc39061432d565b60405180910390fd5b60005b600880549050811015610ef6578173ffffffffffffffffffffffffffffffffffffffff1660088281548110610d0757610d066147dc565b5b9060005260206000200160009054906101000a900473ffffffffffffffffffffffffffffffffffffffff1673ffffffffffffffffffffffffffffffffffffffff161415610ee35760086001600880549050610d6291906145e9565b81548110610d7357610d726147dc565b5b9060005260206000200160009054906101000a900473ffffffffffffffffffffffffffffffffffffffff1660088281548110610db257610db16147dc565b5b9060005260206000200160006101000a81548173ffffffffffffffffffffffffffffffffffffffff021916908373ffffffffffffffffffffffffffffffffffffffff1602179055506000600460008473ffffffffffffffffffffffffffffffffffffffff1673ffffffffffffffffffffffffffffffffffffffff168152602001908152602001600020819055506000600760008473ffffffffffffffffffffffffffffffffffffffff1673ffffffffffffffffffffffffffffffffffffffff16815260200190815260200160002060006101000a81548160ff0219169083151502179055506008805480610ea957610ea86147ad565b5b6001900381819060005260206000200160006101000a81549073ffffffffffffffffffffffffffffffffffffffff02191690559055610ef6565b8080610eee906146d7565b915050610ccf565b5050565b6000610fa3610f0761235e565b84610f9e8560056000610f1861235e565b73ffffffffffffffffffffffffffffffffffffffff1673ffffffffffffffffffffffffffffffffffffffff16815260200190815260200160002060008973ffffffffffffffffffffffffffffffffffffffff1673ffffffffffffffffffffffffffffffffffffffff1681526020019081526020016000205461291690919063ffffffff16565b612366565b6001905092915050565b600f5481565b6000610fbd61235e565b9050600760008273ffffffffffffffffffffffffffffffffffffffff1673ffffffffffffffffffffffffffffffffffffffff16815260200190815260200160002060009054906101000a900460ff161561104c576040517f08c379a00000000000000000000000000000000000000000000000000000000081526004016110439061444d565b60405180910390fd5b600061105783612974565b505050505090506110b081600360008573ffffffffffffffffffffffffffffffffffffffff1673ffffffffffffffffffffffffffffffffffffffff168152602001908152602001600020546129d090919063ffffffff16565b600360008473ffffffffffffffffffffffffffffffffffffffff1673ffffffffffffffffffffffffffffffffffffffff1681526020019081526020016000208190555061110881600b546129d090919063ffffffff16565b600b8190555061112383600c5461291690919063ffffffff16565b600c81905550505050565b61113661235e565b73ffffffffffffffffffffffffffffffffffffffff1660008054906101000a900473ffffffffffffffffffffffffffffffffffffffff1673ffffffffffffffffffffffffffffffffffffffff16146111c3576040517f08c379a00000000000000000000000000000000000000000000000000000000081526004016111ba906143ad565b60405180910390fd5b6001600660008373ffffffffffffffffffffffffffffffffffffffff1673ffffffffffffffffffffffffffffffffffffffff16815260200190815260200160002060006101000a81548160ff02191690831515021790555050565b6000600a54831115611265576040517f08c379a000000000000000000000000000000000000000000000000000000000815260040161125c9061434d565b60405180910390fd5b8161128557600061127584612974565b505050505090508091505061129c565b600061129084612974565b50505050915050809150505b92915050565b601360019054906101000a900460ff1681565b6112bd61235e565b73ffffffffffffffffffffffffffffffffffffffff1660008054906101000a900473ffffffffffffffffffffffffffffffffffffffff1673ffffffffffffffffffffffffffffffffffffffff161461134a576040517f08c379a0000000000000000000000000000000000000000000000000000000008152600401611341906143ad565b60405180910390fd5b600760008273ffffffffffffffffffffffffffffffffffffffff1673ffffffffffffffffffffffffffffffffffffffff16815260200190815260200160002060009054906101000a900460ff16156113d7576040517f08c379a00000000000000000000000000000000000000000000000000000000081526004016113ce9061432d565b60405180910390fd5b6000600360008373ffffffffffffffffffffffffffffffffffffffff1673ffffffffffffffffffffffffffffffffffffffff1681526020019081526020016000205411156114ab57611467600360008373ffffffffffffffffffffffffffffffffffffffff1673ffffffffffffffffffffffffffffffffffffffff16815260200190815260200160002054610b26565b600460008373ffffffffffffffffffffffffffffffffffffffff1673ffffffffffffffffffffffffffffffffffffffff168152602001908152602001600020819055505b6001600760008373ffffffffffffffffffffffffffffffffffffffff1673ffffffffffffffffffffffffffffffffffffffff16815260200190815260200160002060006101000a81548160ff0219169083151502179055506008819080600181540180825580915050600190039060005260206000200160009091909190916101000a81548173ffffffffffffffffffffffffffffffffffffffff021916908373ffffffffffffffffffffffffffffffffffffffff16021790555050565b6000600660008373ffffffffffffffffffffffffffffffffffffffff1673ffffffffffffffffffffffffffffffffffffffff16815260200190815260200160002060009054906101000a900460ff169050919050565b60115481565b6000806000806115d3612a1a565b9150915081819350935050509091565b6000600760008373ffffffffffffffffffffffffffffffffffffffff1673ffffffffffffffffffffffffffffffffffffffff16815260200190815260200160002060009054906101000a900460ff161561167e57600460008373ffffffffffffffffffffffffffffffffffffffff1673ffffffffffffffffffffffffffffffffffffffff1681526020019081526020016000205490506116c9565b6116c6600360008473ffffffffffffffffffffffffffffffffffffffff1673ffffffffffffffffffffffffffffffffffffffff16815260200190815260200160002054610b26565b90505b919050565b6116d661235e565b73ffffffffffffffffffffffffffffffffffffffff1660008054906101000a900473ffffffffffffffffffffffffffffffffffffffff1673ffffffffffffffffffffffffffffffffffffffff1614611763576040517f08c379a000000000000000000000000000000000000000000000000000000000815260040161175a906143ad565b60405180910390fd5b600073ffffffffffffffffffffffffffffffffffffffff1660008054906101000a900473ffffffffffffffffffffffffffffffffffffffff1673ffffffffffffffffffffffffffffffffffffffff167f8be0079c531659141344cd1fd0a4f28419497f9722a3daafe3b4186f6b6457e060405160405180910390a360008060006101000a81548173ffffffffffffffffffffffffffffffffffffffff021916908373ffffffffffffffffffffffffffffffffffffffff160217905550565b60145481565b6000600760008373ffffffffffffffffffffffffffffffffffffffff1673ffffffffffffffffffffffffffffffffffffffff16815260200190815260200160002060009054906101000a900460ff169050919050565b60008060009054906101000a900473ffffffffffffffffffffffffffffffffffffffff16905090565b6118ae61235e565b73ffffffffffffffffffffffffffffffffffffffff1660008054906101000a900473ffffffffffffffffffffffffffffffffffffffff1673ffffffffffffffffffffffffffffffffffffffff161461193b576040517f08c379a0000000000000000000000000000000000000000000000000000000008152600401611932906143ad565b60405180910390fd5b8060118190555050565b6060600e8054611954906146a5565b80601f0160208091040260200160405190810160405280929190818152602001828054611980906146a5565b80156119cd5780601f106119a2576101008083540402835291602001916119cd565b820191906000526020600020905b8154815290600101906020018083116119b057829003601f168201915b5050505050905090565b6000611a9a6119e461235e565b84611a9585604051806060016040528060258152602001614cc16025913960056000611a0e61235e565b73ffffffffffffffffffffffffffffffffffffffff1673ffffffffffffffffffffffffffffffffffffffff16815260200190815260200160002060008a73ffffffffffffffffffffffffffffffffffffffff1673ffffffffffffffffffffffffffffffffffffffff1681526020019081526020016000205461283d9092919063ffffffff16565b612366565b6001905092915050565b3373ffffffffffffffffffffffffffffffffffffffff16600160009054906101000a900473ffffffffffffffffffffffffffffffffffffffff1673ffffffffffffffffffffffffffffffffffffffff1614611b34576040517f08c379a0000000000000000000000000000000000000000000000000000000008152600401611b2b9061446d565b60405180910390fd5b6002544211611b78576040517f08c379a0000000000000000000000000000000000000000000000000000000008152600401611b6f9061442d565b60405180910390fd5b600160009054906101000a900473ffffffffffffffffffffffffffffffffffffffff1673ffffffffffffffffffffffffffffffffffffffff1660008054906101000a900473ffffffffffffffffffffffffffffffffffffffff1673ffffffffffffffffffffffffffffffffffffffff167f8be0079c531659141344cd1fd0a4f28419497f9722a3daafe3b4186f6b6457e060405160405180910390a3600160009054906101000a900473ffffffffffffffffffffffffffffffffffffffff166000806101000a81548173ffffffffffffffffffffffffffffffffffffffff021916908373ffffffffffffffffffffffffffffffffffffffff160217905550565b6000611c8c611c8561235e565b8484612531565b6001905092915050565b6000600254905090565b611ca861235e565b73ffffffffffffffffffffffffffffffffffffffff1660008054906101000a900473ffffffffffffffffffffffffffffffffffffffff1673ffffffffffffffffffffffffffffffffffffffff1614611d35576040517f08c379a0000000000000000000000000000000000000000000000000000000008152600401611d2c906143ad565b60405180910390fd5b80601360016101000a81548160ff0219169083151502179055507f53726dfcaf90650aa7eb35524f4d3220f07413c8d6cb404cc8c18bf5591bc15981604051611d7e9190614250565b60405180910390a150565b611d9161235e565b73ffffffffffffffffffffffffffffffffffffffff1660008054906101000a900473ffffffffffffffffffffffffffffffffffffffff1673ffffffffffffffffffffffffffffffffffffffff1614611e1e576040517f08c379a0000000000000000000000000000000000000000000000000000000008152600401611e15906143ad565b60405180910390fd5b611e466064611e3883600a54612ccd90919063ffffffff16565b6128cc90919063ffffffff16565b60148190555050565b611e5761235e565b73ffffffffffffffffffffffffffffffffffffffff1660008054906101000a900473ffffffffffffffffffffffffffffffffffffffff1673ffffffffffffffffffffffffffffffffffffffff1614611ee4576040517f08c379a0000000000000000000000000000000000000000000000000000000008152600401611edb906143ad565b60405180910390fd5b60008054906101000a900473ffffffffffffffffffffffffffffffffffffffff16600160006101000a81548173ffffffffffffffffffffffffffffffffffffffff021916908373ffffffffffffffffffffffffffffffffffffffff16021790555060008060006101000a81548173ffffffffffffffffffffffffffffffffffffffff021916908373ffffffffffffffffffffffffffffffffffffffff1602179055508042611f929190614508565b600281905550600073ffffffffffffffffffffffffffffffffffffffff1660008054906101000a900473ffffffffffffffffffffffffffffffffffffffff1673ffffffffffffffffffffffffffffffffffffffff167f8be0079c531659141344cd1fd0a4f28419497f9722a3daafe3b4186f6b6457e060405160405180910390a350565b6000600560008473ffffffffffffffffffffffffffffffffffffffff1673ffffffffffffffffffffffffffffffffffffffff16815260200190815260200160002060008373ffffffffffffffffffffffffffffffffffffffff1673ffffffffffffffffffffffffffffffffffffffff16815260200190815260200160002054905092915050565b6120a561235e565b73ffffffffffffffffffffffffffffffffffffffff1660008054906101000a900473ffffffffffffffffffffffffffffffffffffffff1673ffffffffffffffffffffffffffffffffffffffff1614612132576040517f08c379a0000000000000000000000000000000000000000000000000000000008152600401612129906143ad565b60405180910390fd5b6000600660008373ffffffffffffffffffffffffffffffffffffffff1673ffffffffffffffffffffffffffffffffffffffff16815260200190815260200160002060006101000a81548160ff02191690831515021790555050565b61219561235e565b73ffffffffffffffffffffffffffffffffffffffff1660008054906101000a900473ffffffffffffffffffffffffffffffffffffffff1673ffffffffffffffffffffffffffffffffffffffff1614612222576040517f08c379a0000000000000000000000000000000000000000000000000000000008152600401612219906143ad565b60405180910390fd5b600073ffffffffffffffffffffffffffffffffffffffff168173ffffffffffffffffffffffffffffffffffffffff161415612292576040517f08c379a0000000000000000000000000000000000000000000000000000000008152600401612289906142cd565b60405180910390fd5b8073ffffffffffffffffffffffffffffffffffffffff1660008054906101000a900473ffffffffffffffffffffffffffffffffffffffff1673ffffffffffffffffffffffffffffffffffffffff167f8be0079c531659141344cd1fd0a4f28419497f9722a3daafe3b4186f6b6457e060405160405180910390a3806000806101000a81548173ffffffffffffffffffffffffffffffffffffffff021916908373ffffffffffffffffffffffffffffffffffffffff16021790555050565b60006123596128a1565b905090565b600033905090565b600073ffffffffffffffffffffffffffffffffffffffff168373ffffffffffffffffffffffffffffffffffffffff1614156123d6576040517f08c379a00000000000000000000000000000000000000000000000000000000081526004016123cd9061440d565b60405180910390fd5b600073ffffffffffffffffffffffffffffffffffffffff168273ffffffffffffffffffffffffffffffffffffffff161415612446576040517f08c379a000000000000000000000000000000000000000000000000000000000815260040161243d906142ed565b60405180910390fd5b80600560008573ffffffffffffffffffffffffffffffffffffffff1673ffffffffffffffffffffffffffffffffffffffff16815260200190815260200160002060008473ffffffffffffffffffffffffffffffffffffffff1673ffffffffffffffffffffffffffffffffffffffff168152602001908152602001600020819055508173ffffffffffffffffffffffffffffffffffffffff168373ffffffffffffffffffffffffffffffffffffffff167f8c5be1e5ebec7d5bd14f71427d1e84f3dd0314c0f7b2291e5b200ac8c7c3b92583604051612524919061448d565b60405180910390a3505050565b600073ffffffffffffffffffffffffffffffffffffffff168373ffffffffffffffffffffffffffffffffffffffff1614156125a1576040517f08c379a0000000000000000000000000000000000000000000000000000000008152600401612598906143ed565b60405180910390fd5b600073ffffffffffffffffffffffffffffffffffffffff168273ffffffffffffffffffffffffffffffffffffffff161415612611576040517f08c379a00000000000000000000000000000000000000000000000000000000081526004016126089061428d565b60405180910390fd5b60008111612654576040517f08c379a000000000000000000000000000000000000000000000000000000000815260040161264b906143cd565b60405180910390fd5b61265c61187d565b73ffffffffffffffffffffffffffffffffffffffff168373ffffffffffffffffffffffffffffffffffffffff16141580156126ca575061269a61187d565b73ffffffffffffffffffffffffffffffffffffffff168273ffffffffffffffffffffffffffffffffffffffff1614155b1561271557601454811115612714576040517f08c379a000000000000000000000000000000000000000000000000000000000815260040161270b9061436d565b60405180910390fd5b5b6000612720306115e3565b905060145481106127315760145490505b600060155482101590508080156127555750601360009054906101000a900460ff16155b801561276d5750601360019054906101000a900460ff165b156127785760155491505b600060019050600660008773ffffffffffffffffffffffffffffffffffffffff1673ffffffffffffffffffffffffffffffffffffffff16815260200190815260200160002060009054906101000a900460ff168061281f5750600660008673ffffffffffffffffffffffffffffffffffffffff1673ffffffffffffffffffffffffffffffffffffffff16815260200190815260200160002060009054906101000a900460ff165b1561282957600090505b61283586868684612d48565b505050505050565b6000838311158290612885576040517f08c379a000000000000000000000000000000000000000000000000000000000815260040161287c919061426b565b60405180910390fd5b506000838561289491906145e9565b9050809150509392505050565b60008060006128ae612a1a565b915091506128c581836128cc90919063ffffffff16565b9250505090565b600061290e83836040518060400160405280601a81526020017f536166654d6174683a206469766973696f6e206279207a65726f000000000000815250613059565b905092915050565b60008082846129259190614508565b90508381101561296a576040517f08c379a00000000000000000000000000000000000000000000000000000000081526004016129619061430d565b60405180910390fd5b8091505092915050565b600080600080600080600080600061298b8a6130bc565b92509250925060008060006129a98d86866129a46128a1565b613116565b9250925092508282828888889b509b509b509b509b509b5050505050505091939550919395565b6000612a1283836040518060400160405280601e81526020017f536166654d6174683a207375627472616374696f6e206f766572666c6f77000081525061283d565b905092915050565b6000806000600b5490506000600a54905060005b600880549050811015612c9057826003600060088481548110612a5457612a536147dc565b5b9060005260206000200160009054906101000a900473ffffffffffffffffffffffffffffffffffffffff1673ffffffffffffffffffffffffffffffffffffffff1673ffffffffffffffffffffffffffffffffffffffff168152602001908152602001600020541180612b425750816004600060088481548110612ada57612ad96147dc565b5b9060005260206000200160009054906101000a900473ffffffffffffffffffffffffffffffffffffffff1673ffffffffffffffffffffffffffffffffffffffff1673ffffffffffffffffffffffffffffffffffffffff16815260200190815260200160002054115b15612b5957600b54600a5494509450505050612cc9565b612be96003600060088481548110612b7457612b736147dc565b5b9060005260206000200160009054906101000a900473ffffffffffffffffffffffffffffffffffffffff1673ffffffffffffffffffffffffffffffffffffffff1673ffffffffffffffffffffffffffffffffffffffff16815260200190815260200160002054846129d090919063ffffffff16565b9250612c7b6004600060088481548110612c0657612c056147dc565b5b9060005260206000200160009054906101000a900473ffffffffffffffffffffffffffffffffffffffff1673ffffffffffffffffffffffffffffffffffffffff1673ffffffffffffffffffffffffffffffffffffffff16815260200190815260200160002054836129d090919063ffffffff16565b91508080612c88906146d7565b915050612a2e565b50612ca8600a54600b546128cc90919063ffffffff16565b821015612cc057600b54600a54935093505050612cc9565b81819350935050505b9091565b600080831415612ce05760009050612d42565b60008284612cee919061458f565b9050828482612cfd919061455e565b14612d3d576040517f08c379a0000000000000000000000000000000000000000000000000000000008152600401612d349061438d565b60405180910390fd5b809150505b92915050565b80612d5657612d5561319f565b5b600760008573ffffffffffffffffffffffffffffffffffffffff1673ffffffffffffffffffffffffffffffffffffffff16815260200190815260200160002060009054906101000a900460ff168015612df95750600760008473ffffffffffffffffffffffffffffffffffffffff1673ffffffffffffffffffffffffffffffffffffffff16815260200190815260200160002060009054906101000a900460ff16155b15612e0e57612e098484846131e2565b613045565b600760008573ffffffffffffffffffffffffffffffffffffffff1673ffffffffffffffffffffffffffffffffffffffff16815260200190815260200160002060009054906101000a900460ff16158015612eb15750600760008473ffffffffffffffffffffffffffffffffffffffff1673ffffffffffffffffffffffffffffffffffffffff16815260200190815260200160002060009054906101000a900460ff165b15612ec657612ec1848484613442565b613044565b600760008573ffffffffffffffffffffffffffffffffffffffff1673ffffffffffffffffffffffffffffffffffffffff16815260200190815260200160002060009054906101000a900460ff16158015612f6a5750600760008473ffffffffffffffffffffffffffffffffffffffff1673ffffffffffffffffffffffffffffffffffffffff16815260200190815260200160002060009054906101000a900460ff16155b15612f7f57612f7a8484846136a2565b613043565b600760008573ffffffffffffffffffffffffffffffffffffffff1673ffffffffffffffffffffffffffffffffffffffff16815260200190815260200160002060009054906101000a900460ff1680156130215750600760008473ffffffffffffffffffffffffffffffffffffffff1673ffffffffffffffffffffffffffffffffffffffff16815260200190815260200160002060009054906101000a900460ff165b156130365761303184848461386d565b613042565b6130418484846136a2565b5b5b5b5b8061305357613052613b62565b5b50505050565b600080831182906130a0576040517f08c379a0000000000000000000000000000000000000000000000000000000008152600401613097919061426b565b60405180910390fd5b50600083856130af919061455e565b9050809150509392505050565b6000806000806130cb85613b76565b905060006130d886613ba7565b90506000613101826130f3858a6129d090919063ffffffff16565b6129d090919063ffffffff16565b90508083839550955095505050509193909250565b60008060008061312f8589612ccd90919063ffffffff16565b905060006131468689612ccd90919063ffffffff16565b9050600061315d8789612ccd90919063ffffffff16565b905060006131868261317885876129d090919063ffffffff16565b6129d090919063ffffffff16565b9050838184965096509650505050509450945094915050565b6000600f541480156131b357506000601154145b156131bd576131e0565b600f546010819055506011546012819055506000600f8190555060006011819055505b565b6000806000806000806131f487612974565b95509550955095509550955061325287600460008c73ffffffffffffffffffffffffffffffffffffffff1673ffffffffffffffffffffffffffffffffffffffff168152602001908152602001600020546129d090919063ffffffff16565b600460008b73ffffffffffffffffffffffffffffffffffffffff1673ffffffffffffffffffffffffffffffffffffffff168152602001908152602001600020819055506132e786600360008c73ffffffffffffffffffffffffffffffffffffffff1673ffffffffffffffffffffffffffffffffffffffff168152602001908152602001600020546129d090919063ffffffff16565b600360008b73ffffffffffffffffffffffffffffffffffffffff1673ffffffffffffffffffffffffffffffffffffffff1681526020019081526020016000208190555061337c85600360008b73ffffffffffffffffffffffffffffffffffffffff1673ffffffffffffffffffffffffffffffffffffffff1681526020019081526020016000205461291690919063ffffffff16565b600360008a73ffffffffffffffffffffffffffffffffffffffff1673ffffffffffffffffffffffffffffffffffffffff168152602001908152602001600020819055506133c881613bd8565b6133d28483613d7d565b8773ffffffffffffffffffffffffffffffffffffffff168973ffffffffffffffffffffffffffffffffffffffff167fddf252ad1be2c89b69c2b068fc378daa952ba7f163c4a11628f55a4df523b3ef8560405161342f919061448d565b60405180910390a3505050505050505050565b60008060008060008061345487612974565b9550955095509550955095506134b286600360008c73ffffffffffffffffffffffffffffffffffffffff1673ffffffffffffffffffffffffffffffffffffffff168152602001908152602001600020546129d090919063ffffffff16565b600360008b73ffffffffffffffffffffffffffffffffffffffff1673ffffffffffffffffffffffffffffffffffffffff1681526020019081526020016000208190555061354783600460008b73ffffffffffffffffffffffffffffffffffffffff1673ffffffffffffffffffffffffffffffffffffffff1681526020019081526020016000205461291690919063ffffffff16565b600460008a73ffffffffffffffffffffffffffffffffffffffff1673ffffffffffffffffffffffffffffffffffffffff168152602001908152602001600020819055506135dc85600360008b73ffffffffffffffffffffffffffffffffffffffff1673ffffffffffffffffffffffffffffffffffffffff1681526020019081526020016000205461291690919063ffffffff16565b600360008a73ffffffffffffffffffffffffffffffffffffffff1673ffffffffffffffffffffffffffffffffffffffff1681526020019081526020016000208190555061362881613bd8565b6136328483613d7d565b8773ffffffffffffffffffffffffffffffffffffffff168973ffffffffffffffffffffffffffffffffffffffff167fddf252ad1be2c89b69c2b068fc378daa952ba7f163c4a11628f55a4df523b3ef8560405161368f919061448d565b60405180910390a3505050505050505050565b6000806000806000806136b487612974565b95509550955095509550955061371286600360008c73ffffffffffffffffffffffffffffffffffffffff1673ffffffffffffffffffffffffffffffffffffffff168152602001908152602001600020546129d090919063ffffffff16565b600360008b73ffffffffffffffffffffffffffffffffffffffff1673ffffffffffffffffffffffffffffffffffffffff168152602001908152602001600020819055506137a785600360008b73ffffffffffffffffffffffffffffffffffffffff1673ffffffffffffffffffffffffffffffffffffffff1681526020019081526020016000205461291690919063ffffffff16565b600360008a73ffffffffffffffffffffffffffffffffffffffff1673ffffffffffffffffffffffffffffffffffffffff168152602001908152602001600020819055506137f381613bd8565b6137fd8483613d7d565b8773ffffffffffffffffffffffffffffffffffffffff168973ffffffffffffffffffffffffffffffffffffffff167fddf252ad1be2c89b69c2b068fc378daa952ba7f163c4a11628f55a4df523b3ef8560405161385a919061448d565b60405180910390a3505050505050505050565b60008060008060008061387f87612974565b9550955095509550955095506138dd87600460008c73ffffffffffffffffffffffffffffffffffffffff1673ffffffffffffffffffffffffffffffffffffffff168152602001908152602001600020546129d090919063ffffffff16565b600460008b73ffffffffffffffffffffffffffffffffffffffff1673ffffffffffffffffffffffffffffffffffffffff1681526020019081526020016000208190555061397286600360008c73ffffffffffffffffffffffffffffffffffffffff1673ffffffffffffffffffffffffffffffffffffffff168152602001908152602001600020546129d090919063ffffffff16565b600360008b73ffffffffffffffffffffffffffffffffffffffff1673ffffffffffffffffffffffffffffffffffffffff16815260200190815260200160002081905550613a0783600460008b73ffffffffffffffffffffffffffffffffffffffff1673ffffffffffffffffffffffffffffffffffffffff1681526020019081526020016000205461291690919063ffffffff16565b600460008a73ffffffffffffffffffffffffffffffffffffffff1673ffffffffffffffffffffffffffffffffffffffff16815260200190815260200160002081905550613a9c85600360008b73ffffffffffffffffffffffffffffffffffffffff1673ffffffffffffffffffffffffffffffffffffffff1681526020019081526020016000205461291690919063ffffffff16565b600360008a73ffffffffffffffffffffffffffffffffffffffff1673ffffffffffffffffffffffffffffffffffffffff16815260200190815260200160002081905550613ae881613bd8565b613af28483613d7d565b8773ffffffffffffffffffffffffffffffffffffffff168973ffffffffffffffffffffffffffffffffffffffff167fddf252ad1be2c89b69c2b068fc378daa952ba7f163c4a11628f55a4df523b3ef85604051613b4f919061448d565b60405180910390a3505050505050505050565b601054600f81905550601254601181905550565b6000613ba06064613b92600f5485612ccd90919063ffffffff16565b6128cc90919063ffffffff16565b9050919050565b6000613bd16064613bc360115485612ccd90919063ffffffff16565b6128cc90919063ffffffff16565b9050919050565b6000613be26128a1565b90506000613bf98284612ccd90919063ffffffff16565b9050613c4d81600360003073ffffffffffffffffffffffffffffffffffffffff1673ffffffffffffffffffffffffffffffffffffffff1681526020019081526020016000205461291690919063ffffffff16565b600360003073ffffffffffffffffffffffffffffffffffffffff1673ffffffffffffffffffffffffffffffffffffffff16815260200190815260200160002081905550600760003073ffffffffffffffffffffffffffffffffffffffff1673ffffffffffffffffffffffffffffffffffffffff16815260200190815260200160002060009054906101000a900460ff1615613d7857613d3483600460003073ffffffffffffffffffffffffffffffffffffffff1673ffffffffffffffffffffffffffffffffffffffff1681526020019081526020016000205461291690919063ffffffff16565b600460003073ffffffffffffffffffffffffffffffffffffffff1673ffffffffffffffffffffffffffffffffffffffff168152602001908152602001600020819055505b505050565b613d9282600b546129d090919063ffffffff16565b600b81905550613dad81600c5461291690919063ffffffff16565b600c819055505050565b600081359050613dc681614c53565b92915050565b600081359050613ddb81614c6a565b92915050565b600081359050613df081614c81565b92915050565b600060208284031215613e0c57613e0b61480b565b5b6000613e1a84828501613db7565b91505092915050565b60008060408385031215613e3a57613e3961480b565b5b6000613e4885828601613db7565b9250506020613e5985828601613db7565b9150509250929050565b600080600060608486031215613e7c57613e7b61480b565b5b6000613e8a86828701613db7565b9350506020613e9b86828701613db7565b9250506040613eac86828701613de1565b9150509250925092565b60008060408385031215613ecd57613ecc61480b565b5b6000613edb85828601613db7565b9250506020613eec85828601613de1565b9150509250929050565b600060208284031215613f0c57613f0b61480b565b5b6000613f1a84828501613dcc565b91505092915050565b600060208284031215613f3957613f3861480b565b5b6000613f4784828501613de1565b91505092915050565b60008060408385031215613f6757613f6661480b565b5b6000613f7585828601613de1565b9250506020613f8685828601613dcc565b9150509250929050565b613f998161461d565b82525050565b613fa88161462f565b82525050565b6000613fb9826144ec565b613fc381856144f7565b9350613fd3818560208601614672565b613fdc81614810565b840191505092915050565b6000613ff46023836144f7565b9150613fff82614821565b604082019050919050565b6000614017602a836144f7565b915061402282614870565b604082019050919050565b600061403a6026836144f7565b9150614045826148bf565b604082019050919050565b600061405d6022836144f7565b91506140688261490e565b604082019050919050565b6000614080601b836144f7565b915061408b8261495d565b602082019050919050565b60006140a3601b836144f7565b91506140ae82614986565b602082019050919050565b60006140c6601f836144f7565b91506140d1826149af565b602082019050919050565b60006140e96028836144f7565b91506140f4826149d8565b604082019050919050565b600061410c6021836144f7565b915061411782614a27565b604082019050919050565b600061412f6020836144f7565b915061413a82614a76565b602082019050919050565b60006141526029836144f7565b915061415d82614a9f565b604082019050919050565b60006141756025836144f7565b915061418082614aee565b604082019050919050565b60006141986024836144f7565b91506141a382614b3d565b604082019050919050565b60006141bb601f836144f7565b91506141c682614b8c565b602082019050919050565b60006141de602c836144f7565b91506141e982614bb5565b604082019050919050565b60006142016023836144f7565b915061420c82614c04565b604082019050919050565b6142208161465b565b82525050565b61422f81614665565b82525050565b600060208201905061424a6000830184613f90565b92915050565b60006020820190506142656000830184613f9f565b92915050565b600060208201905081810360008301526142858184613fae565b905092915050565b600060208201905081810360008301526142a681613fe7565b9050919050565b600060208201905081810360008301526142c68161400a565b9050919050565b600060208201905081810360008301526142e68161402d565b9050919050565b6000602082019050818103600083015261430681614050565b9050919050565b6000602082019050818103600083015261432681614073565b9050919050565b6000602082019050818103600083015261434681614096565b9050919050565b60006020820190508181036000830152614366816140b9565b9050919050565b60006020820190508181036000830152614386816140dc565b9050919050565b600060208201905081810360008301526143a6816140ff565b9050919050565b600060208201905081810360008301526143c681614122565b9050919050565b600060208201905081810360008301526143e681614145565b9050919050565b6000602082019050818103600083015261440681614168565b9050919050565b600060208201905081810360008301526144268161418b565b9050919050565b60006020820190508181036000830152614446816141ae565b9050919050565b60006020820190508181036000830152614466816141d1565b9050919050565b60006020820190508181036000830152614486816141f4565b9050919050565b60006020820190506144a26000830184614217565b92915050565b60006040820190506144bd6000830185614217565b6144ca6020830184614217565b9392505050565b60006020820190506144e66000830184614226565b92915050565b600081519050919050565b600082825260208201905092915050565b60006145138261465b565b915061451e8361465b565b9250827fffffffffffffffffffffffffffffffffffffffffffffffffffffffffffffffff0382111561455357614552614720565b5b828201905092915050565b60006145698261465b565b91506145748361465b565b9250826145845761458361474f565b5b828204905092915050565b600061459a8261465b565b91506145a58361465b565b9250817fffffffffffffffffffffffffffffffffffffffffffffffffffffffffffffffff04831182151516156145de576145dd614720565b5b828202905092915050565b60006145f48261465b565b91506145ff8361465b565b92508282101561461257614611614720565b5b828203905092915050565b60006146288261463b565b9050919050565b60008115159050919050565b600073ffffffffffffffffffffffffffffffffffffffff82169050919050565b6000819050919050565b600060ff82169050919050565b60005b83811015614690578082015181840152602081019050614675565b8381111561469f576000848401525b50505050565b600060028204905060018216806146bd57607f821691505b602082108114156146d1576146d061477e565b5b50919050565b60006146e28261465b565b91507fffffffffffffffffffffffffffffffffffffffffffffffffffffffffffffffff82141561471557614714614720565b5b600182019050919050565b7f4e487b7100000000000000000000000000000000000000000000000000000000600052601160045260246000fd5b7f4e487b7100000000000000000000000000000000000000000000000000000000600052601260045260246000fd5b7f4e487b7100000000000000000000000000000000000000000000000000000000600052602260045260246000fd5b7f4e487b7100000000000000000000000000000000000000000000000000000000600052603160045260246000fd5b7f4e487b7100000000000000000000000000000000000000000000000000000000600052603260045260246000fd5b600080fd5b6000601f19601f8301169050919050565b7f45524332303a207472616e7366657220746f20746865207a65726f206164647260008201527f6573730000000000000000000000000000000000000000000000000000000000602082015250565b7f416d6f756e74206d757374206265206c657373207468616e20746f74616c207260008201527f65666c656374696f6e7300000000000000000000000000000000000000000000602082015250565b7f4f776e61626c653a206e6577206f776e657220697320746865207a65726f206160008201527f6464726573730000000000000000000000000000000000000000000000000000602082015250565b7f45524332303a20617070726f766520746f20746865207a65726f20616464726560008201527f7373000000000000000000000000000000000000000000000000000000000000602082015250565b7f536166654d6174683a206164646974696f6e206f766572666c6f770000000000600082015250565b7f4163636f756e7420697320616c7265616479206578636c756465640000000000600082015250565b7f416d6f756e74206d757374206265206c657373207468616e20737570706c7900600082015250565b7f5472616e7366657220616d6f756e74206578636565647320746865206d61785460008201527f78416d6f756e742e000000000000000000000000000000000000000000000000602082015250565b7f536166654d6174683a206d756c7469706c69636174696f6e206f766572666c6f60008201527f7700000000000000000000000000000000000000000000000000000000000000602082015250565b7f4f776e61626c653a2063616c6c6572206973206e6f7420746865206f776e6572600082015250565b7f5472616e7366657220616d6f756e74206d75737420626520677265617465722060008201527f7468616e207a65726f0000000000000000000000000000000000000000000000602082015250565b7f45524332303a207472616e736665722066726f6d20746865207a65726f20616460008201527f6472657373000000000000000000000000000000000000000000000000000000602082015250565b7f45524332303a20617070726f76652066726f6d20746865207a65726f2061646460008201527f7265737300000000000000000000000000000000000000000000000000000000602082015250565b7f436f6e7472616374206973206c6f636b656420756e74696c2037206461797300600082015250565b7f4578636c75646564206164647265737365732063616e6e6f742063616c6c207460008201527f6869732066756e6374696f6e0000000000000000000000000000000000000000602082015250565b7f596f7520646f6e27742068617665207065726d697373696f6e20746f20756e6c60008201527f6f636b0000000000000000000000000000000000000000000000000000000000602082015250565b614c5c8161461d565b8114614c6757600080fd5b50565b614c738161462f565b8114614c7e57600080fd5b50565b614c8a8161465b565b8114614c9557600080fd5b5056fe45524332303a207472616e7366657220616d6f756e74206578636565647320616c6c6f77616e636545524332303a2064656372656173656420616c6c6f77616e63652062656c6f77207a65726fa2646970667358221220e7648c6023a63a3f087721477ea3d228acb8977a01f04a3c0b5c7cf7d4c0477c64736f6c63430008060033",
  "immutableReferences": {},
  "source": "// SPDX-License-Identifier: MIT\npragma solidity ^0.8.0;\n\n/*import \"@openzeppelin/contracts/token/ERC20/IERC20.sol\";\nimport \"@openzeppelin/contracts/token/ERC20/extensions/ERC20Snapshot.sol\";\nimport \"@openzeppelin/contracts/access/Ownable.sol\";\nimport \"./owned.sol\";\nimport \"./safeMath.sol\";\n*/\n\n/*contract Volcano is ERC20, ERC20Snapshot, Ownable {\n    constructor() ERC20(\"Volcano\", \"VLC\") {\n        _mint(msg.sender, 500 * 10 ** decimals() );\n    }\n\n    function snapshot() public onlyOwner {\n        _snapshot();\n    }\n\n    function mint(address to, uint256 amount) public onlyOwner {\n        _mint(to, amount);\n    }\n\n    function _beforeTokenTransfer(address from, address to, uint256 amount)\n        internal\n        override(ERC20, ERC20Snapshot)\n    {\n        super._beforeTokenTransfer(from, to, amount );\n    }\n}*/\n\ninterface IERC20 {\n\n    function totalSupply() external view returns (uint256);\n\n    /**\n     * @dev Returns the amount of tokens owned by `account`.\n     */\n    function balanceOf(address account) external view returns (uint256);\n\n    /**\n     * @dev Moves `amount` tokens from the caller's account to `recipient`.\n     *\n     * Returns a boolean value indicating whether the operation succeeded.\n     *\n     * Emits a {Transfer} event.\n     */\n    function transfer(address recipient, uint256 amount) external returns (bool);\n\n    /**\n     * @dev Returns the remaining number of tokens that `spender` will be\n     * zero by default.\n     *\n     * This value changes when {approve} or {transferFrom} are called.\n     */\n    function allowance(address owner, address spender) external view returns (uint256);\n\n    /**\n     * @dev Sets `amount` as the allowance of `spender` over the caller's tokens.\n     *\n     * Returns a boolean value indicating whether the operation succeeded.\n     *\n     * IMPORTANT: Beware that changing an allowance with this method brings the risk\n     * that someone may use both the old and the new allowance by unfortunate\n     * transaction ordering. One possible solution to mitigate this race\n     * condition is to first reduce the spender's allowance to 0 and set the\n     * desired value afterwards:\n     * https://github.com/ethereum/EIPs/issues/20#issuecomment-263524729\n     *\n     * Emits an {Approval} event.\n     */\n    function approve(address spender, uint256 amount) external returns (bool);\n\n    /**\n     * @dev Moves `amount` tokens from `sender` to `recipient` using the\n     * allowance mechanism. `amount` is then deducted from the caller's\n     * allowance.\n     *\n     * Returns a boolean value indicating whether the operation succeeded.\n     *\n     * Emits a {Transfer} event.\n     */\n    function transferFrom(address sender, address recipient, uint256 amount) external returns (bool);\n\n    /**\n     * @dev Emitted when `value` tokens are moved from one account (`from`) to\n     * another (`to`).\n     *\n     * Note that `value` may be zero.\n     */\n    event Transfer(address indexed from, address indexed to, uint256 value);\n\n    /**\n     * @dev Emitted when the allowance of a `spender` for an `owner` is set by\n     * a call to {approve}. `value` is the new allowance.\n     */\n    event Approval(address indexed owner, address indexed spender, uint256 value);\n}\n\n\n\n/**\n * @dev Wrappers over Solidity's arithmetic operations with added overflow\n * checks.\n *\n * Arithmetic operations in Solidity wrap on overflow. This can easily result\n * in bugs, because programmers usually assume that an overflow raises an\n * error, which is the standard behavior in high level programming languages.\n * `SafeMath` restores this intuition by reverting the transaction when an\n * operation overflows.\n *\n * Using this library instead of the unchecked operations eliminates an entire\n * class of bugs, so it's recommended to use it always.\n */\n \nlibrary SafeMath {\n    /**\n     * @dev Returns the addition of two unsigned integers, reverting on\n     * overflow.\n     *\n     * Counterpart to Solidity's `+` operator.\n     *\n     * Requirements:\n     *\n     * - Addition cannot overflow.\n     */\n    function add(uint256 a, uint256 b) internal pure returns (uint256) {\n        uint256 c = a + b;\n        require(c >= a, \"SafeMath: addition overflow\");\n\n        return c;\n    }\n\n    /**\n     * @dev Returns the subtraction of two unsigned integers, reverting on\n     * overflow (when the result is negative).\n     *\n     * Counterpart to Solidity's `-` operator.\n     *\n     * Requirements:\n     *\n     * - Subtraction cannot overflow.\n     */\n    function sub(uint256 a, uint256 b) internal pure returns (uint256) {\n        return sub(a, b, \"SafeMath: subtraction overflow\");\n    }\n\n    /**\n     * @dev Returns the subtraction of two unsigned integers, reverting with custom message on\n     * overflow (when the result is negative).\n     *\n     * Counterpart to Solidity's `-` operator.\n     *\n     * Requirements:\n     *\n     * - Subtraction cannot overflow.\n     */\n    function sub(uint256 a, uint256 b, string memory errorMessage) internal pure returns (uint256) {\n        require(b <= a, errorMessage);\n        uint256 c = a - b;\n\n        return c;\n    }\n\n    /**\n     * @dev Returns the multiplication of two unsigned integers, reverting on\n     * overflow.\n     *\n     * Counterpart to Solidity's `*` operator.\n     *\n     * Requirements:\n     *\n     * - Multiplication cannot overflow.\n     */\n    function mul(uint256 a, uint256 b) internal pure returns (uint256) {\n        // Gas optimization: this is cheaper than requiring 'a' not being zero, but the\n        // benefit is lost if 'b' is also tested.\n        // See: https://github.com/OpenZeppelin/openzeppelin-contracts/pull/522\n        if (a == 0) {\n            return 0;\n        }\n\n        uint256 c = a * b;\n        require(c / a == b, \"SafeMath: multiplication overflow\");\n\n        return c;\n    }\n\n    /**\n     * @dev Returns the integer division of two unsigned integers. Reverts on\n     * division by zero. The result is rounded towards zero.\n     *\n     * Counterpart to Solidity's `/` operator. Note: this function uses a\n     * `revert` opcode (which leaves remaining gas untouched) while Solidity\n     * uses an invalid opcode to revert (consuming all remaining gas).\n     *\n     * Requirements:\n     *\n     * - The divisor cannot be zero.\n     */\n    function div(uint256 a, uint256 b) internal pure returns (uint256) {\n        return div(a, b, \"SafeMath: division by zero\");\n    }\n\n    /**\n     * @dev Returns the integer division of two unsigned integers. Reverts with custom message on\n     * division by zero. The result is rounded towards zero.\n     *\n     * Counterpart to Solidity's `/` operator. Note: this function uses a\n     * `revert` opcode (which leaves remaining gas untouched) while Solidity\n     * uses an invalid opcode to revert (consuming all remaining gas).\n     *\n     * Requirements:\n     *\n     * - The divisor cannot be zero.\n     */\n    function div(uint256 a, uint256 b, string memory errorMessage) internal pure returns (uint256) {\n        require(b > 0, errorMessage);\n        uint256 c = a / b;\n        // assert(a == b * c + a % b); // There is no case in which this doesn't hold\n\n        return c;\n    }\n\n    /**\n     * @dev Returns the remainder of dividing two unsigned integers. (unsigned integer modulo),\n     * Reverts when dividing by zero.\n     *\n     * Counterpart to Solidity's `%` operator. This function uses a `revert`\n     * opcode (which leaves remaining gas untouched) while Solidity uses an\n     * invalid opcode to revert (consuming all remaining gas).\n     *\n     * Requirements:\n     *\n     * - The divisor cannot be zero.\n     */\n    function mod(uint256 a, uint256 b) internal pure returns (uint256) {\n        return mod(a, b, \"SafeMath: modulo by zero\");\n    }\n\n    /**\n     * @dev Returns the remainder of dividing two unsigned integers. (unsigned integer modulo),\n     * Reverts with custom message when dividing by zero.\n     *\n     * Counterpart to Solidity's `%` operator. This function uses a `revert`\n     * opcode (which leaves remaining gas untouched) while Solidity uses an\n     * invalid opcode to revert (consuming all remaining gas).\n     *\n     * Requirements:\n     *\n     * - The divisor cannot be zero.\n     */\n    function mod(uint256 a, uint256 b, string memory errorMessage) internal pure returns (uint256) {\n        require(b != 0, errorMessage);\n        return a % b;\n    }\n}\n\nabstract contract Context {\n    function _msgSender() internal view virtual returns (address) {\n        return msg.sender;\n    }\n\n    function _msgData() internal view virtual returns (bytes memory) {\n        this; // silence state mutability warning without generating bytecode - see https://github.com/ethereum/solidity/issues/2691\n        return msg.data;\n    }\n}\n\n\n/**\n * @dev Collection of functions related to the address type\n */\nlibrary Address {\n    /**\n     * @dev Returns true if `account` is a contract.\n     *\n     * [IMPORTANT]\n     * ====\n     * It is unsafe to assume that an address for which this function returns\n     * false is an externally-owned account (EOA) and not a contract.\n     *\n     * Among others, `isContract` will return false for the following\n     * types of addresses:\n     *\n     *  - an externally-owned account\n     *  - a contract in construction\n     *  - an address where a contract will be created\n     *  - an address where a contract lived, but was destroyed\n     * ====\n     */\n    function isContract(address account) internal view returns (bool) {\n        // According to EIP-1052, 0x0 is the value returned for not-yet created accounts\n        // and 0xc5d2460186f7233c927e7db2dcc703c0e500b653ca82273b7bfad8045d85a470 is returned\n        // for accounts without code, i.e. `keccak256('')`\n        bytes32 codehash;\n        bytes32 accountHash = 0xc5d2460186f7233c927e7db2dcc703c0e500b653ca82273b7bfad8045d85a470;\n        // solhint-disable-next-line no-inline-assembly\n        assembly { codehash := extcodehash(account) }\n        return (codehash != accountHash && codehash != 0x0);\n    }\n\n    /**\n     * @dev Replacement for Solidity's `transfer`: sends `amount` wei to\n     * `recipient`, forwarding all available gas and reverting on errors.\n     *\n     * https://eips.ethereum.org/EIPS/eip-1884[EIP1884] increases the gas cost\n     * of certain opcodes, possibly making contracts go over the 2300 gas limit\n     * imposed by `transfer`, making them unable to receive funds via\n     * `transfer`. {sendValue} removes this limitation.\n     *\n     * https://diligence.consensys.net/posts/2019/09/stop-using-soliditys-transfer-now/[Learn more].\n     *\n     * IMPORTANT: because control is transferred to `recipient`, care must be\n     * taken to not create reentrancy vulnerabilities. Consider using\n     * {ReentrancyGuard} or the\n     * https://solidity.readthedocs.io/en/v0.5.11/security-considerations.html#use-the-checks-effects-interactions-pattern[checks-effects-interactions pattern].\n     */\n    function sendValue(address payable recipient, uint256 amount) internal {\n        require(address(this).balance >= amount, \"Address: insufficient balance\");\n\n        // solhint-disable-next-line avoid-low-level-calls, avoid-call-value\n        (bool success, ) = recipient.call{ value: amount }(\"\");\n        require(success, \"Address: unable to send value, recipient may have reverted\");\n    }\n\n    /**\n     * @dev Performs a Solidity function call using a low level `call`. A\n     * plain`call` is an unsafe replacement for a function call: use this\n     * function instead.\n     *\n     * If `target` reverts with a revert reason, it is bubbled up by this\n     * function (like regular Solidity function calls).\n     *\n     * Returns the raw returned data. To convert to the expected return value,\n     * use https://solidity.readthedocs.io/en/latest/units-and-global-variables.html?highlight=abi.decode#abi-encoding-and-decoding-functions[`abi.decode`].\n     *\n     * Requirements:\n     *\n     * - `target` must be a contract.\n     * - calling `target` with `data` must not revert.\n     *\n     * _Available since v3.1._\n     */\n    function functionCall(address target, bytes memory data) internal returns (bytes memory) {\n      return functionCall(target, data, \"Address: low-level call failed\");\n    }\n\n    /**\n     * @dev Same as {xref-Address-functionCall-address-bytes-}[`functionCall`], but with\n     * `errorMessage` as a fallback revert reason when `target` reverts.\n     *\n     * _Available since v3.1._\n     */\n    function functionCall(address target, bytes memory data, string memory errorMessage) internal returns (bytes memory) {\n        return _functionCallWithValue(target, data, 0, errorMessage);\n    }\n\n    /**\n     * @dev Same as {xref-Address-functionCall-address-bytes-}[`functionCall`],\n     * but also transferring `value` wei to `target`.\n     *\n     * Requirements:\n     *\n     * - the calling contract must have an ETH balance of at least `value`.\n     * - the called Solidity function must be `payable`.\n     *\n     * _Available since v3.1._\n     */\n    function functionCallWithValue(address target, bytes memory data, uint256 value) internal returns (bytes memory) {\n        return functionCallWithValue(target, data, value, \"Address: low-level call with value failed\");\n    }\n\n    /**\n     * @dev Same as {xref-Address-functionCallWithValue-address-bytes-uint256-}[`functionCallWithValue`], but\n     * with `errorMessage` as a fallback revert reason when `target` reverts.\n     *\n     * _Available since v3.1._\n     */\n    function functionCallWithValue(address target, bytes memory data, uint256 value, string memory errorMessage) internal returns (bytes memory) {\n        require(address(this).balance >= value, \"Address: insufficient balance for call\");\n        return _functionCallWithValue(target, data, value, errorMessage);\n    }\n\n    function _functionCallWithValue(address target, bytes memory data, uint256 weiValue, string memory errorMessage) private returns (bytes memory) {\n        require(isContract(target), \"Address: call to non-contract\");\n\n        // solhint-disable-next-line avoid-low-level-calls\n        (bool success, bytes memory returndata) = target.call{ value: weiValue }(data);\n        if (success) {\n            return returndata;\n        } else {\n            // Look for revert reason and bubble it up if present\n            if (returndata.length > 0) {\n                // The easiest way to bubble the revert reason is using memory via assembly\n\n                // solhint-disable-next-line no-inline-assembly\n                assembly {\n                    let returndata_size := mload(returndata)\n                    revert(add(32, returndata), returndata_size)\n                }\n            } else {\n                revert(errorMessage);\n            }\n        }\n    }\n}\n\n/**\n * @dev Contract module which provides a basic access control mechanism, where\n * there is an account (an owner) that can be granted exclusive access to\n * specific functions.\n *\n * By default, the owner account will be the one that deploys the contract. This\n * can later be changed with {transferOwnership}.\n *\n * This module is used through inheritance. It will make available the modifier\n * `onlyOwner`, which can be applied to your functions to restrict their use to\n * the owner.\n */\ncontract Ownable is Context {\n    address private _owner;\n    address private _previousOwner;\n    uint256 private _lockTime;\n\n    event OwnershipTransferred(address indexed previousOwner, address indexed newOwner);\n\n    /**\n     * @dev Initializes the contract setting the deployer as the initial owner.\n     */\n    constructor () {\n        address msgSender = _msgSender();\n        _owner = msgSender;\n        emit OwnershipTransferred(address(0), msgSender);\n    }\n\n    /**\n     * @dev Returns the address of the current owner.\n     */\n    function owner() public view returns (address) {\n        return _owner;\n    }\n\n    /**\n     * @dev Throws if called by any account other than the owner.\n     */\n    modifier onlyOwner() {\n        require(_owner == _msgSender(), \"Ownable: caller is not the owner\");\n        _;\n    }\n\n     /**\n     * @dev Leaves the contract without owner. It will not be possible to call\n     * `onlyOwner` functions anymore. Can only be called by the current owner.\n     *\n     * NOTE: Renouncing ownership will leave the contract without an owner,\n     * thereby removing any functionality that is only available to the owner.\n     */\n    function renounceOwnership() public virtual onlyOwner {\n        emit OwnershipTransferred(_owner, address(0));\n        _owner = address(0);\n    }\n\n    /**\n     * @dev Transfers ownership of the contract to a new account (`newOwner`).\n     * Can only be called by the current owner.\n     */\n    function transferOwnership(address newOwner) public virtual onlyOwner {\n        require(newOwner != address(0), \"Ownable: new owner is the zero address\");\n        emit OwnershipTransferred(_owner, newOwner);\n        _owner = newOwner;\n    }\n\n    function geUnlockTime() public view returns (uint256) {\n        return _lockTime;\n    }\n\n    //Locks the contract for owner for the amount of time provided\n    function lock(uint256 time) public virtual onlyOwner {\n        _previousOwner = _owner;\n        _owner = address(0);\n        _lockTime = block.timestamp + time;\n        emit OwnershipTransferred(_owner, address(0));\n    }\n    \n    //Unlocks the contract for owner when _lockTime is exceeds\n    function unlock() public virtual {\n        require(_previousOwner == msg.sender, \"You don't have permission to unlock\");\n        require( block.timestamp > _lockTime , \"Contract is locked until 7 days\");\n        emit OwnershipTransferred(_owner, _previousOwner);\n        _owner = _previousOwner;\n    }\n}\n\n\ncontract Volcano is Context, IERC20, Ownable {\n    using SafeMath for uint256;\n\n    mapping (address => uint256) private _rOwned;\n    mapping (address => uint256) private _tOwned;\n    mapping (address => mapping (address => uint256)) private _allowances;\n\n    mapping (address => bool) private _isExcludedFromFee;\n\n    mapping (address => bool) private _isExcluded;\n    address[] private _excluded;\n   \n    uint8 private _decimals = 18;\n    \n    uint256 private constant MAX = ~uint256(0);\n    \n    uint256 private _tTotal = 1000 * 10**6 * 10** _decimals;\n    //uint256 private _tTotal = 1000 * 10**6 * 10**9; //totalSupply  1 000 000 000 , 000 000 000\n    uint256 private _rTotal = (MAX - (MAX % _tTotal));\n    uint256 private _tFeeTotal;\n\n    string private _name = \"Volcano\";\n    string private _symbol = \"VLC\";\n    \n    uint256 public _taxFee = 5;\n    uint256 private _previousTaxFee = _taxFee;\n    \n    uint256 public _liquidityFee = 5;\n    uint256 private _previousLiquidityFee = _liquidityFee;\n    \n    bool inSwapAndLiquify;\n    bool public swapAndLiquifyEnabled = true;\n    \n    uint256 public _maxTxAmount = 500 * 10**6 * 10** _decimals;\n    uint256 private numTokensSellToAddToLiquidity = 500 * 10**6 * 10** _decimals;\n    \n    event MinTokensBeforeSwapUpdated(uint256 minTokensBeforeSwap);\n    event SwapAndLiquifyEnabledUpdated(bool enabled);\n    event SwapAndLiquify(\n        uint256 tokensSwapped,\n        uint256 ethReceived,\n        uint256 tokensIntoLiqudity\n    );\n    \n    modifier lockTheSwap {\n        inSwapAndLiquify = true;\n        _;\n        inSwapAndLiquify = false;\n    }\n    \n    constructor () {\n        _rOwned[msg.sender] = _rTotal;\n        \n       /* IUniswapV2Router02 _uniswapV2Router = IUniswapV2Router02(0xD99D1c33F9fC3444f8101754aBC46c52416550D1);\n         // Create a uniswap pair for this new token\n        uniswapV2Pair = IUniswapV2Factory(_uniswapV2Router.factory())\n            .createPair(address(this), _uniswapV2Router.WETH());\n\n        // set the rest of the contract variables\n        uniswapV2Router = _uniswapV2Router;*/\n        \n        //exclude owner and this contract from fee\n        _isExcludedFromFee[owner()] = true;\n        _isExcludedFromFee[address(this)] = true;\n        \n        emit Transfer(address(0), msg.sender, _tTotal);\n    }\n\n    function name() public view returns (string memory) {\n        return _name;\n    }\n\n    function symbol() public view returns (string memory) {\n        return _symbol;\n    }\n\n    function decimals() public view returns (uint8) {\n        return _decimals;\n    }\n\n    function totalSupply() public view override returns (uint256) {\n        return _tTotal;\n    }\n\n    function balanceOf(address account) public view override returns (uint256) {\n        if (_isExcluded[account]) return _tOwned[account];\n        return tokenFromReflection(_rOwned[account]);\n    }\n\n    function transfer(address recipient, uint256 amount) public override returns (bool) {\n        _transfer(_msgSender(), recipient, amount);\n        return true;\n    }\n\n    function allowance(address owner, address spender) public view override returns (uint256) {\n        return _allowances[owner][spender];\n    }\n\n    function approve(address spender, uint256 amount) public override returns (bool) {\n        _approve(_msgSender(), spender, amount);\n        return true;\n    }\n\n    function transferFrom(address sender, address recipient, uint256 amount) public override returns (bool) {\n        _transfer(sender, recipient, amount);\n        _approve(sender, _msgSender(), _allowances[sender][_msgSender()].sub(amount, \"ERC20: transfer amount exceeds allowance\"));\n        return true;\n    }\n\n    function increaseAllowance(address spender, uint256 addedValue) public virtual returns (bool) {\n        _approve(_msgSender(), spender, _allowances[_msgSender()][spender].add(addedValue));\n        return true;\n    }\n\n    function decreaseAllowance(address spender, uint256 subtractedValue) public virtual returns (bool) {\n        _approve(_msgSender(), spender, _allowances[_msgSender()][spender].sub(subtractedValue, \"ERC20: decreased allowance below zero\"));\n        return true;\n    }\n\n    function isExcludedFromReward(address account) public view returns (bool) {\n        return _isExcluded[account];\n    }\n\n    function totalFees() public view returns (uint256) {\n        return _tFeeTotal;\n    }\n\n    function deliver(uint256 tAmount) public {\n        address sender = _msgSender();\n        require(!_isExcluded[sender], \"Excluded addresses cannot call this function\");\n        (uint256 rAmount,,,,,) = _getValues(tAmount);\n        _rOwned[sender] = _rOwned[sender].sub(rAmount);\n        _rTotal = _rTotal.sub(rAmount);\n        _tFeeTotal = _tFeeTotal.add(tAmount);\n    }\n\n    function reflectionFromToken(uint256 tAmount, bool deductTransferFee) public view returns(uint256) {\n        require(tAmount <= _tTotal, \"Amount must be less than supply\");\n        if (!deductTransferFee) {\n            (uint256 rAmount,,,,,) = _getValues(tAmount);\n            return rAmount;\n        } else {\n            (,uint256 rTransferAmount,,,,) = _getValues(tAmount);\n            return rTransferAmount;\n        }\n    }\n\n    function tokenFromReflection(uint256 rAmount) public view returns(uint256) {\n        require(rAmount <= _rTotal, \"Amount must be less than total reflections\");\n        uint256 currentRate =  _getRate();\n        return rAmount.div(currentRate);\n    }\n\n    function excludeFromReward(address account) public onlyOwner() {\n        // require(account != 0x7a250d5630B4cF539739dF2C5dAcb4c659F2488D, 'We can not exclude Uniswap router.');\n        require(!_isExcluded[account], \"Account is already excluded\");\n        if(_rOwned[account] > 0) {\n            _tOwned[account] = tokenFromReflection(_rOwned[account]);\n        }\n        _isExcluded[account] = true;\n        _excluded.push(account);\n    }\n\n    function includeInReward(address account) external onlyOwner() {\n        require(_isExcluded[account], \"Account is already excluded\");\n        for (uint256 i = 0; i < _excluded.length; i++) {\n            if (_excluded[i] == account) {\n                _excluded[i] = _excluded[_excluded.length - 1];\n                _tOwned[account] = 0;\n                _isExcluded[account] = false;\n                _excluded.pop();\n                break;\n            }\n        }\n    }\n        function _transferBothExcluded(address sender, address recipient, uint256 tAmount) private {\n        (uint256 rAmount, uint256 rTransferAmount, uint256 rFee, uint256 tTransferAmount, uint256 tFee, uint256 tLiquidity) = _getValues(tAmount);\n        _tOwned[sender] = _tOwned[sender].sub(tAmount);\n        _rOwned[sender] = _rOwned[sender].sub(rAmount);\n        _tOwned[recipient] = _tOwned[recipient].add(tTransferAmount);\n        _rOwned[recipient] = _rOwned[recipient].add(rTransferAmount);        \n        _takeLiquidity(tLiquidity);\n        _reflectFee(rFee, tFee);\n        emit Transfer(sender, recipient, tTransferAmount);\n    }\n    \n        function excludeFromFee(address account) public onlyOwner {\n        _isExcludedFromFee[account] = true;\n    }\n    \n    function includeInFee(address account) public onlyOwner {\n        _isExcludedFromFee[account] = false;\n    }\n    \n    function setTaxFeePercent(uint256 taxFee) external onlyOwner() {\n        _taxFee = taxFee;\n    }\n    \n    \n    function setLiquidityFeePercent(uint256 liquidityFee) external onlyOwner() {\n        _liquidityFee = liquidityFee;\n    }\n   \n    function setMaxTxPercent(uint256 maxTxPercent) external onlyOwner() {\n        _maxTxAmount = _tTotal.mul(maxTxPercent).div(\n            10**2\n        );\n    }\n\n    function setSwapAndLiquifyEnabled(bool _enabled) public onlyOwner {\n        swapAndLiquifyEnabled = _enabled;\n        emit SwapAndLiquifyEnabledUpdated(_enabled);\n    }\n    \n     //to recieve ETH from uniswapV2Router when swaping\n    receive() external payable {}\n\n    function _reflectFee(uint256 rFee, uint256 tFee) private {\n        _rTotal = _rTotal.sub(rFee);\n        _tFeeTotal = _tFeeTotal.add(tFee);\n    }\n\n    function _getValues(uint256 tAmount) private view returns (uint256, uint256, uint256, uint256, uint256, uint256) {\n        (uint256 tTransferAmount, uint256 tFee, uint256 tLiquidity) = _getTValues(tAmount);\n        (uint256 rAmount, uint256 rTransferAmount, uint256 rFee) = _getRValues(tAmount, tFee, tLiquidity, _getRate());\n        return (rAmount, rTransferAmount, rFee, tTransferAmount, tFee, tLiquidity);\n    }\n\n    function _getTValues(uint256 tAmount) private view returns (uint256, uint256, uint256) {\n        uint256 tFee = calculateTaxFee(tAmount);\n        uint256 tLiquidity = calculateLiquidityFee(tAmount);\n        uint256 tTransferAmount = tAmount.sub(tFee).sub(tLiquidity);\n        return (tTransferAmount, tFee, tLiquidity);\n    }\n\n    function _getRValues(uint256 tAmount, uint256 tFee, uint256 tLiquidity, uint256 currentRate) private pure returns (uint256, uint256, uint256) {\n        uint256 rAmount = tAmount.mul(currentRate);\n        uint256 rFee = tFee.mul(currentRate);\n        uint256 rLiquidity = tLiquidity.mul(currentRate);\n        uint256 rTransferAmount = rAmount.sub(rFee).sub(rLiquidity);\n        return (rAmount, rTransferAmount, rFee);\n    }\n\n    function _getRate() private view returns(uint256) {\n        (uint256 rSupply, uint256 tSupply) = _getCurrentSupply();\n        return rSupply.div(tSupply);\n    }\n\n    function getCurrentRate() public view returns(uint256) {\n        return _getRate();\n    }\n    \n    function getSupply() public view returns(uint256, uint256){\n        (uint256 rSupply, uint256 tSupply) = _getCurrentSupply();\n        return ( rSupply, tSupply);\n    }\n\n    function _getCurrentSupply() private view returns(uint256, uint256) {\n        uint256 rSupply = _rTotal;\n        uint256 tSupply = _tTotal;      \n        for (uint256 i = 0; i < _excluded.length; i++) {\n            if (_rOwned[_excluded[i]] > rSupply || _tOwned[_excluded[i]] > tSupply) return (_rTotal, _tTotal);\n            rSupply = rSupply.sub(_rOwned[_excluded[i]]);\n            tSupply = tSupply.sub(_tOwned[_excluded[i]]);\n        }\n        if (rSupply < _rTotal.div(_tTotal)) return (_rTotal, _tTotal);\n        return (rSupply, tSupply);\n    }\n    \n    function _takeLiquidity(uint256 tLiquidity) private {\n        uint256 currentRate =  _getRate();\n        uint256 rLiquidity = tLiquidity.mul(currentRate);\n        _rOwned[address(this)] = _rOwned[address(this)].add(rLiquidity);\n        if(_isExcluded[address(this)])\n            _tOwned[address(this)] = _tOwned[address(this)].add(tLiquidity);\n    }\n    \n    function calculateTaxFee(uint256 _amount) private view returns (uint256) {\n        return _amount.mul(_taxFee).div(\n            10**2\n        );\n    }\n\n    function calculateLiquidityFee(uint256 _amount) private view returns (uint256) {\n        return _amount.mul(_liquidityFee).div(\n            10**2\n        );\n    }\n    \n    function removeAllFee() private {\n        if(_taxFee == 0 && _liquidityFee == 0) return;\n        \n        _previousTaxFee = _taxFee;\n        _previousLiquidityFee = _liquidityFee;\n        \n        _taxFee = 0;\n        _liquidityFee = 0;\n    }\n    \n    function restoreAllFee() private {\n        _taxFee = _previousTaxFee;\n        _liquidityFee = _previousLiquidityFee;\n    }\n    \n    function isExcludedFromFee(address account) public view returns(bool) {\n        return _isExcludedFromFee[account];\n    }\n\n    function _approve(address owner, address spender, uint256 amount) private {\n        require(owner != address(0), \"ERC20: approve from the zero address\");\n        require(spender != address(0), \"ERC20: approve to the zero address\");\n\n        _allowances[owner][spender] = amount;\n        emit Approval(owner, spender, amount);\n    }\n\n    function _transfer(\n        address from,\n        address to,\n        uint256 amount\n    ) private {\n        require(from != address(0), \"ERC20: transfer from the zero address\");\n        require(to != address(0), \"ERC20: transfer to the zero address\");\n        require(amount > 0, \"Transfer amount must be greater than zero\");\n        if(from != owner() && to != owner())\n            require(amount <= _maxTxAmount, \"Transfer amount exceeds the maxTxAmount.\");\n\n        // is the token balance of this contract address over the min number of\n        // tokens that we need to initiate a swap + liquidity lock?\n        // also, don't get caught in a circular liquidity event.\n        // also, don't swap & liquify if sender is uniswap pair.\n        uint256 contractTokenBalance = balanceOf(address(this));\n        \n        if(contractTokenBalance >= _maxTxAmount)\n        {\n            contractTokenBalance = _maxTxAmount;\n        }\n        \n        bool overMinTokenBalance = contractTokenBalance >= numTokensSellToAddToLiquidity;\n        if (\n            overMinTokenBalance &&\n            !inSwapAndLiquify &&\n            //from != uniswapV2Pair &&\n            swapAndLiquifyEnabled\n        ) {\n            contractTokenBalance = numTokensSellToAddToLiquidity;\n            //add liquidity\n            //swapAndLiquify(contractTokenBalance);\n        }\n        \n        //indicates if fee should be deducted from transfer\n        bool takeFee = true;\n        \n        //if any account belongs to _isExcludedFromFee account then remove the fee\n        if(_isExcludedFromFee[from] || _isExcludedFromFee[to]){\n            takeFee = false;\n        }\n        \n        //transfer amount, it will take tax, burn, liquidity fee\n        _tokenTransfer(from,to,amount,takeFee);\n    }\n\n    /*function swapAndLiquify(uint256 contractTokenBalance) private lockTheSwap {\n        // split the contract balance into halves\n        uint256 half = contractTokenBalance.div(2);\n        uint256 otherHalf = contractTokenBalance.sub(half);\n\n        // capture the contract's current ETH balance.\n        // this is so that we can capture exactly the amount of ETH that the\n        // swap creates, and not make the liquidity event include any ETH that\n        // has been manually sent to the contract\n        uint256 initialBalance = address(this).balance;\n\n        // swap tokens for ETH\n        swapTokensForEth(half); // <- this breaks the ETH -> HATE swap when swap+liquify is triggered\n\n        // how much ETH did we just swap into?\n        uint256 newBalance = address(this).balance.sub(initialBalance);\n\n        // add liquidity to uniswap\n        addLiquidity(otherHalf, newBalance);\n        \n        emit SwapAndLiquify(half, newBalance, otherHalf);\n    }*/\n\n    /*function swapTokensForEth(uint256 tokenAmount) private {\n        // generate the uniswap pair path of token -> weth\n        address[] memory path = new address[](2);\n        path[0] = address(this);\n        path[1] = uniswapV2Router.WETH();\n\n        _approve(address(this), address(uniswapV2Router), tokenAmount);\n\n        // make the swap\n        uniswapV2Router.swapExactTokensForETHSupportingFeeOnTransferTokens(\n            tokenAmount,\n            0, // accept any amount of ETH\n            path,\n            address(this),\n            block.timestamp\n        );\n    }*/\n\n    /*function addLiquidity(uint256 tokenAmount, uint256 ethAmount) private {\n        // approve token transfer to cover all possible scenarios\n        _approve(address(this), address(uniswapV2Router), tokenAmount);\n\n        // add the liquidity\n        uniswapV2Router.addLiquidityETH{value: ethAmount}(\n            address(this),\n            tokenAmount,\n            0, // slippage is unavoidable\n            0, // slippage is unavoidable\n            owner(),\n            block.timestamp\n        );\n    }*/\n\n    //this method is responsible for taking all fee, if takeFee is true\n    function _tokenTransfer(address sender, address recipient, uint256 amount,bool takeFee) private {\n        if(!takeFee)\n            removeAllFee();\n        \n        if (_isExcluded[sender] && !_isExcluded[recipient]) {\n            _transferFromExcluded(sender, recipient, amount);\n        } else if (!_isExcluded[sender] && _isExcluded[recipient]) {\n            _transferToExcluded(sender, recipient, amount);\n        } else if (!_isExcluded[sender] && !_isExcluded[recipient]) {\n            _transferStandard(sender, recipient, amount);\n        } else if (_isExcluded[sender] && _isExcluded[recipient]) {\n            _transferBothExcluded(sender, recipient, amount);\n        } else {\n            _transferStandard(sender, recipient, amount);\n        }\n        \n        if(!takeFee)\n            restoreAllFee();\n    }\n\n    function _transferStandard(address sender, address recipient, uint256 tAmount) private {\n        (uint256 rAmount, uint256 rTransferAmount, uint256 rFee, uint256 tTransferAmount, uint256 tFee, uint256 tLiquidity) = _getValues(tAmount);\n        _rOwned[sender] = _rOwned[sender].sub(rAmount);\n        _rOwned[recipient] = _rOwned[recipient].add(rTransferAmount);\n        _takeLiquidity(tLiquidity);\n        _reflectFee(rFee, tFee);\n        emit Transfer(sender, recipient, tTransferAmount);\n    }\n\n    function _transferToExcluded(address sender, address recipient, uint256 tAmount) private {\n        (uint256 rAmount, uint256 rTransferAmount, uint256 rFee, uint256 tTransferAmount, uint256 tFee, uint256 tLiquidity) = _getValues(tAmount);\n        _rOwned[sender] = _rOwned[sender].sub(rAmount);\n        _tOwned[recipient] = _tOwned[recipient].add(tTransferAmount);\n        _rOwned[recipient] = _rOwned[recipient].add(rTransferAmount);           \n        _takeLiquidity(tLiquidity);\n        _reflectFee(rFee, tFee);\n        emit Transfer(sender, recipient, tTransferAmount);\n    }\n\n    function _transferFromExcluded(address sender, address recipient, uint256 tAmount) private {\n        (uint256 rAmount, uint256 rTransferAmount, uint256 rFee, uint256 tTransferAmount, uint256 tFee, uint256 tLiquidity) = _getValues(tAmount);\n        _tOwned[sender] = _tOwned[sender].sub(tAmount);\n        _rOwned[sender] = _rOwned[sender].sub(rAmount);\n        _rOwned[recipient] = _rOwned[recipient].add(rTransferAmount);   \n        _takeLiquidity(tLiquidity);\n        _reflectFee(rFee, tFee);\n        emit Transfer(sender, recipient, tTransferAmount);\n    }\n}",
  "sourcePath": "/Users/alessandrodecristofaro/Documents/Volkano/contracts/VLC.sol",
  "compiler": {
    "name": "solc",
    "version": "0.8.6+commit.11564f7e.Emscripten.clang"
  },
  "schemaVersion": "3.4.1",
  "updatedAt": "2021-06-30T22:54:24.464Z",
  "devdoc": {
    "kind": "dev",
    "methods": {
      "allowance(address,address)": {
        "details": "Returns the remaining number of tokens that `spender` will be zero by default. This value changes when {approve} or {transferFrom} are called."
      },
      "approve(address,uint256)": {
        "details": "Sets `amount` as the allowance of `spender` over the caller's tokens. Returns a boolean value indicating whether the operation succeeded. IMPORTANT: Beware that changing an allowance with this method brings the risk that someone may use both the old and the new allowance by unfortunate transaction ordering. One possible solution to mitigate this race condition is to first reduce the spender's allowance to 0 and set the desired value afterwards: https://github.com/ethereum/EIPs/issues/20#issuecomment-263524729 Emits an {Approval} event."
      },
      "balanceOf(address)": {
        "details": "Returns the amount of tokens owned by `account`."
      },
      "owner()": {
        "details": "Returns the address of the current owner."
      },
      "renounceOwnership()": {
        "details": "Leaves the contract without owner. It will not be possible to call `onlyOwner` functions anymore. Can only be called by the current owner. NOTE: Renouncing ownership will leave the contract without an owner, thereby removing any functionality that is only available to the owner."
      },
      "transfer(address,uint256)": {
        "details": "Moves `amount` tokens from the caller's account to `recipient`. Returns a boolean value indicating whether the operation succeeded. Emits a {Transfer} event."
      },
      "transferFrom(address,address,uint256)": {
        "details": "Moves `amount` tokens from `sender` to `recipient` using the allowance mechanism. `amount` is then deducted from the caller's allowance. Returns a boolean value indicating whether the operation succeeded. Emits a {Transfer} event."
      },
      "transferOwnership(address)": {
        "details": "Transfers ownership of the contract to a new account (`newOwner`). Can only be called by the current owner."
      }
    },
    "version": 1
  },
  "userdoc": {
    "kind": "user",
    "methods": {},
    "version": 1
  }
}